:020000040800F2
:100000000028002051160008E1150008E715000837
:10001000ED150008F3150008F915000800000000B0
:10002000000000000000000000000000FF150008B4
:100030000B16000800000000171600082316000821
:1000400099160008991600089916000899160008D4
:1000500099160008991600089916000899160008C4
:1000600099160008991600089916000899160008B4
:1000700099160008991600089916000899160008A4
:100080009916000899160008991600089916000894
:100090009916000899160008991600089916000884
:1000A0009916000899160008991600089916000874
:1000B0003116000899160008000000009916000883
:1000C00099160008000000000000000099160008C2
:1000D00000000000991600089916000800000000B2
:1000E00099160008991600089916000800000000EB
:1000F0000000000000000000000000000000000000
:0C01000000000000000000005FF808F1A3
:10010C0010B5054C237833B9044B13B10448AFF345
:10011C0000800123237010BD680000200000000047
:10012C00C82C000808B5034B1BB103490348AFF3B7
:10013C00008008BD000000006C000020C82C0008E6
:10014C0080B500AF01221021094801F0A2FD012267
:10015C002021074801F09DFD01224021044801F0B7
:10016C0098FD01228021024801F093FD00BF80BD63
:10017C00000C014080B582B000AF78607B68002B2A
:10018C0063DB7B68092B60DC32497A681346DB0041
:10019C009B1A0B441B781A4680212F4801F079FDDD
:1001AC002C497A681346DB009B1A0B4401331B78ED
:1001BC001A464FF48071284801F06BFD25497A6886
:1001CC001346DB009B1A0B4402331B781A464FF480
:1001DC000071214801F05DFD1E497A681346DB0071
:1001EC009B1A0B4403331B781A464FF480611A4850
:1001FC0001F04FFD17497A681346DB009B1A0B443C
:10020C0004331B781A464FF40061134801F041FD8A
:10021C0010497A681346DB009B1A0B4405331B7894
:10022C001A464FF480510C4801F033FD09497A68A5
:10023C001346DB009B1A0B4406331B781A464FF40B
:10024C000051054801F025FD00E000BF0837BD4610
:10025C0080BD00BF000000200008014080B483B0C6
:10026C0000AF78607B680D4A82FB03129210DB179B
:10027C00D31A0B4A13607968084B83FB01239A103D
:10028C00CB17D21A13469B0013445B00CA1A044BBB
:10029C005A6000BF0C37BD4680BC70476766666607
:1002AC00A000002080B483B000AF78607B680D4A5A
:1002BC0082FB03129210DB17D31A0B4A93607968F6
:1002CC00084B83FB01239A10CB17D21A13469B00C1
:1002DC0013445B00CA1A044BDA6000BF0C37BD46EE
:1002EC0080BC704767666666A000002080B500AFD2
:1002FC00FFF726FF254B1B78032B37D801A252F8AA
:10030C0023F000BF21030008370300084D03000849
:10031C00630300081E4B1B681846FFF72BFF0022D7
:10032C0010211C4801F0B5FC21E0194B5B68184604
:10033C00FFF720FF00222021164801F0AAFC16E04E
:10034C00134B9B681846FFF715FF002240211148FC
:10035C0001F09FFC0BE00E4BDB681846FFF70AFF21
:10036C00002280210B4801F094FC00E000BF074BF9
:10037C001B780133DAB2054B1A70044B1B78032B34
:10038C0002D9024B00221A7000BF80BD84000020ED
:10039C00A0000020000C014080B500AF01210248F4
:1003AC0001F08FFC00BF80BD0008014080B500AF9C
:1003BC000221044801F085FC1021024801F081FC67
:1003CC0000BF80BD0008014080B500AF0421044887
:1003DC0001F077FC2021024801F073FC00BF80BDC6
:1003EC000008014080B500AF0821044801F069FC09
:1003FC004021024801F065FC00BF80BD00080140AF
:10040C0080B582B000AF786039607B68DBB21A4689
:10041C000221074801F03DFC3B68DBB21A46102173
:10042C00034801F036FC00BF0837BD4680BD00BF55
:10043C000008014080B582B000AF786039607B68FD
:10044C00DBB21A460421074801F023FC3B68DBB2FF
:10045C001A462021034801F01CFC00BF0837BD469A
:10046C0080BD00BF0008014080B582B000AF78604D
:10047C0039607B68DBB21A460821074801F009FC99
:10048C003B68DBB21A464021034801F002FC00BF76
:10049C000837BD4680BD00BF0008014080B500AFE5
:1004AC0001210120FFF7ACFF01210120FFF7C2FF62
:1004BC0001210120FFF7D8FF00BF80BD80B500AF40
:1004CC00FFF7ECFFFFF73CFE0B4B1B68DAB20B4B54
:1004DC001A700B4B1B68DAB20A4B1A700A4B1B686A
:1004EC00DAB20A4B1A700A4B1E221A60094B01220F
:1004FC001A6000BF80BD00BF5000002046000020E5
:10050C005400002047000020580000204800002024
:10051C004C0000208C00002080B500AF8F4B1B6876
:10052C001E2B40F01981002000F0D2FC0346002B5A
:10053C0009D08B4B1B68002B05D1894B01221A600B
:10054C0000F0E8FA09E1002000F0C2FC0346002BA1
:10055C0002D1834B00221A60032000F0D3FC034627
:10056C00002B01D0FFF7AAFF7E4B1B78002B40F02D
:10057C00EC807C4B0A221A707B4B1B68042B00F21C
:10058C00D58001A252F823F0A9050008E505000862
:10059C003F0600088F060008E9060008734B1B682D
:1005AC00DAB2734B1A70734B1B68DAB2724B1A7057
:1005BC00724B1B68DAB2724B1A706B4B01221A60C9
:1005CC006F4B1A786F4B1A706D4B1A786A4B1B78FD
:1005DC001344DAB26C4B1A7000210120FFF710FFA4
:1005EC0001210120FFF726FF01210020FFF73CFF2E
:1005FC00634B1A78634B1A705E4B1B68DAB2604B14
:10060C001B781344DAB2604B1A705D4B1B78002BCD
:10061C0008D1554B02221A60564B1B68DAB2564B66
:10062C001A7087E0564B1B78013BDAB2544B1A70A8
:10063C0080E000210120FFF7E3FE01210020FFF7FD
:10064C00F9FE01210120FFF70FFF4B4B1A784D4BA0
:10065C001A70494B1A784C4B1A70474B1B78002B6D
:10066C0008D1414B03221A60444B1B68DAB2444B4D
:10067C001A705FE0404B1B78013BDAB23E4B1A70AC
:10068C0058E001210020FFF7BBFE01210120FFF7FC
:10069C00D1FE00210120FFF7E7FE364B1B68DAB2D2
:1006AC00374B1B781344DAB2364B1A70344B1A782A
:1006BC00354B1A70324B1B78002B08D12A4B042275
:1006CC001A602C4B1B68DAB22B4B1A7032E02C4B95
:1006DC001B78013BDAB22A4B1A702BE00121002067
:1006EC00FFF78EFE00210120FFF7A4FE012101205F
:1006FC00FFF7BAFE204B1A78224B1A701E4B1A7851
:10070C00214B1A701C4B1B78002B08D1164B012265
:10071C001A601A4B1B68DAB2194B1A700AE0164BA6
:10072C001B78013BDAB2144B1A7003E00E4B00221B
:10073C001A6000BF134B1B781846FFF78FFD124B46
:10074C001B781846FFF7AEFD07E0064B1B78013B04
:10075C00DAB2044B1A7000E000BF80BD4C000020E0
:10076C0090000020490000208C0000205000002048
:10077C0046000020540000204700002058000020B4
:10078C0048000020850000208600002080B500AFC6
:10079C00FFF784FEFFF7D4FC094B00221A70094BBB
:1007AC0000221A70084B20221A60084B14221A607F
:1007BC00074B1B68DAB2074B1A7000BF80BD00BF35
:1007CC0088000020890000204C0000208C000020B4
:1007DC00500000208700002080B400AF1B4B1B682A
:1007EC001B4A82FB03125210DB17D31A194A1360EF
:1007FC00184B1B68002B02DC164B01221A60134BA2
:10080C001A68144B1B68D31A134A1360124B1B68DB
:10081C00002B17DC0D4B1B68012BCCBF01230023D5
:10082C00DBB21A460B4B1A60084B1A68094B1B6853
:10083C00D31A094A1360084B1B68002B02DC064BC9
:10084C0001221A6000BFBD4680BC704750000020DA
:10085C0067666666540000205800002080B500AF23
:10086C00A04B1B68202B40F03A81002000F030FB9D
:10087C000346002B0ED09C4B1B68002B0AD19A4BC5
:10088C0001221A60FFF7A8FFFFF718FE964B012212
:10089C001A6025E1002000F01BFB0346002B02D15F
:1008AC00914B00221A60012000F012FB0346002B32
:1008BC0014D08E4B1B68002B10D18C4B01221A606C
:1008CC008B4B1B780133DAB2894B1A70884B1B782F
:1008DC00632B0CD9864B00221A7008E0012000F023
:1008EC00F7FA0346002B02D1804B00221A6001203C
:1008FC0000F008FB0346002B03D07E4B01221A703C
:10090C0008E0012000F0FEFA0346002B02D1794BDF
:10091C0000221A70022000F0DBFA0346002B3ED0B6
:10092C00754B1B68002B3AD1734B01221A60734B29
:10093C001B68142B0DD16E4B1B781A46704B1A602A
:10094C00704B1B68DAB26A4B1A706C4B15221A602A
:10095C002FE06A4B1B68152B0DD1654B1B781A4683
:10096C00684B1A60684B1B68DAB2614B1A70634BA8
:10097C0016221A601DE0614B1B68162B19D15C4BBB
:10098C001B781A46604B1A60FFF726FF5C4B1B68FE
:10099C00DAB2574B1A70594B14221A6009E0022034
:1009AC0000F096FA0346002B04D1534B00221A6038
:1009BC0000E000BF032000F08BFA0346002B24D08C
:1009CC00524B1B68002B20D1504B01221A604B4B11
:1009DC001B68142B05D14A4B1B68DAB2444B1A70B6
:1009EC001DE0464B1B68152B05D1464B1B68DAB234
:1009FC003F4B1A7013E0414B1B68162B0FD1424B27
:100A0C001B68DAB23A4B1A7009E0032000F060FA66
:100A1C000346002B04D13D4B00221A6000E000BFBE
:100A2C00032000F06FFA0346002B01D0FFF7AEFE57
:100A3C00374B1B78002B4BD1354B05221A702D4BA5
:100A4C001B78012B05D12A4B1B780133DAB2284BCA
:100A5C001A702A4B1B68162B22D0162B2EDC142B4B
:100A6C0002D0152B0ED029E00120FFF7F7FBFFF782
:100A7C009DFC01210120FFF7DDFC01210120FFF786
:100A8C00F3FC1FE00220FFF7E9FBFFF79DFC0121BF
:100A9C000120FFF7B5FC01210120FFF7E5FC11E077
:100AAC000320FFF7DBFBFFF79DFC01210120FFF783
:100ABC00A7FC01210120FFF7BDFC03E00F4B142222
:100ACC001A6000BF0A4B1B781846FFF7EBFB07E0D8
:100ADC000F4B1B78013BDAB20D4B1A7000E000BFD4
:100AEC0080BD00BF4C00002090000020940000202E
:100AFC008700002088000020980000208C00002037
:100B0C005000002054000020580000209C000020C1
:100B1C008900002080B500AFFFF7C0FCFFF710FB89
:100B2C00064B1F221A60064B0A221A606320FFF73D
:100B3C0095FB6320FFF7B6FB00BF80BD4C00002087
:100B4C008C00002080B500AF834B1B681F2B40F03E
:100B5C000181002000F0BCF90346002B09D07F4B2B
:100B6C001B68002B05D17D4B01221A60FFF70EFE8E
:100B7C00F1E0002000F0ACF90346002B02D1774BDA
:100B8C0000221A60012000F0A3F90346002B2ED09E
:100B9C00734B1B68002B2AD1714B01221A60714BCD
:100BAC001B680C2B0FD1FFF7CBFA6F4B1B68DBB21A
:100BBC001A46920013445B00DAB26C4B1A70694B04
:100BCC000D221A601DE0674B1B680A2B19D1FFF729
:100BDC00B7FA654B1B68DBB21A46920013445B00F4
:100BEC00DAB2624B1A705F4B0B221A6009E00120DB
:100BFC0000F06EF90346002B04D1594B00221A6009
:100C0C0000E000BF574B1B680D2B27D1574B1B78AF
:100C1C00002B09D1534B0A221A606320FFF71EFBED
:100C2C006320FFF73FFB19E0504B1B78013BDAB216
:100C3C004E4B1A704D4B1B784D4AA2FB0323DB081D
:100C4C00DBB21846FFF70AFB484B1B78484AA2FB5D
:100C5C000323DB08DBB21846FFF724FB414B1B6870
:100C6C000B2B27D1414B1B78002B09D13D4B0C2270
:100C7C001A606320FFF7F2FA6320FFF713FB19E009
:100C8C003A4B1B78013BDAB2384B1A70374B1B7856
:100C9C00374AA2FB0323DB08DBB21846FFF7DEFA68
:100CAC00324B1B78324AA2FB0323DB08DBB218461B
:100CBC00FFF7F8FA032000F025F90346002B01D0CA
:100CCC00FFF728FF274B1B680A3B032B3ED801A2DA
:100CDC0052F823F00B0D0008F10C00083F0D000832
:100CEC00250D000801210020FFF78AFB00210120BF
:100CFC00FFF7A0FB01210120FFF7B6FB2BE0012140
:100D0C000020FFF77DFB01210120FFF793FB002161
:100D1C000120FFF7A9FB1EE000210120FFF770FB6B
:100D2C0001210020FFF786FB01210120FFF79CFB2E
:100D3C0011E000210120FFF763FB01210120FFF7E7
:100D4C0079FB01210020FFF78FFB04E0054B0A2201
:100D5C001A6000E000BF80BD4C0000209000002015
:100D6C00940000208C000020540000208A000020F9
:100D7C00CDCCCCCC80B582B000AF00237B6090E0B2
:100D8C004C4A7B68134419784B4A7B6813440A46D7
:100D9C001A707B68032B3CD801A252F823F000BFD9
:100DAC00BD0D0008D50D0008ED0D0008050E00085E
:100DBC000121424800F056FF034619463D4A7B6824
:100DCC0013440A461A7025E002213C4800F04AFF01
:100DDC0003461946374A7B6813440A461A7019E0D1
:100DEC000421364800F03EFF03461946314A7B6821
:100DFC0013440A461A700DE04FF48041304800F05D
:100E0C0031FF034619462B4A7B6813440A461A7075
:100E1C0000E000BF274A7B6813441A7826497B6898
:100E2C000B441B789A4239D1224A7B6813441978B7
:100E3C00244A7B6813440A461A70224A7B6813447E
:100E4C001B78002B20D1204A7B6813441B78002B85
:100E5C0009D11E4A7B6832F81330013B99B21B4A08
:100E6C007B6822F81310194A7B6832F81330002B78
:100E7C0014D1154A7B68134401221A70134A7B68FB
:100E8C00642122F8131009E0104A7B68642122F8CF
:100E9C0013100D4A7B68134400221A707B680133CF
:100EAC007B607B68032B7FF76BAF00BF00BF0837FD
:100EBC00BD4680BDB4000020B8000020000C0140ED
:100ECC0000080140B0000020BC000020C000002041
:100EDC0080B483B000AF0346FB71FB79032B01D9BF
:100EEC00002307E0FB79064AD35C002B0CBF0123DF
:100EFC000023DBB218460C37BD4680BC704700BFE0
:100F0C00B000002080B483B000AF0346FB71FB79C6
:100F1C00032B01D9002307E0FB79064AD35C012B94
:100F2C000CBF01230023DBB218460C37BD4680BC36
:100F3C00704700BFBC00002080B500AF00F0A8FBDC
:100F4C0000F03CF800F0C2F800F074F8144801F01E
:100F5C00FDFA00F091F964226421124800F0E6F9E0
:100F6C0064226421104800F0E1F9642264210F48E6
:100F7C0000F0DCF97D2200210D4800F0D7F94FF488
:100F8C007A724FF47A710B4800F0D0F90A220021E2
:100F9C00094800F0CBF900F081FA30BFFBE700BF45
:100FAC00D000002025050008510B00086908000836
:100FBC00F9020008A5030008810D000880B590B067
:100FCC0000AF07F1180328220021184601F06EFE2D
:100FDC003B1D00221A605A609A60DA601A61022383
:100FEC00BB610123BB621023FB6200237B6307F10F
:100FFC001803184600F07EFE0346002B01D000F0CB
:10100C00DFF80F237B600023BB600023FB60002311
:10101C003B6100237B613B1D0021184601F0EAF87F
:10102C000346002B01D000F0CBF800BF4037BD4683
:10103C0080BD000080B586B000AF07F10803002228
:10104C001A605A609A60DA603B4600221A605A6055
:10105C001D4B4FF080421A601B4B41F63F725A6099
:10106C00194B00229A60184B0922DA60164B0022A9
:10107C001A61154B00229A61134801F017FA0346C6
:10108C00002B01D000F09CF84FF48053BB6007F1AB
:10109C00080319460C4801F095FB0346002B01D0C0
:1010AC0000F08EF800233B6000237B603B46194622
:1010BC00054801F06DFD0346002B01D000F080F8CF
:1010CC0000BF1837BD4680BDD000002080B586B06B
:1010DC0000AF07F1080300221A605A609A60DA60C8
:1010EC002F4B9B692E4A43F0040393612C4B9B6955
:1010FC0003F004037B607B68294B9B69284A43F00F
:10110C0008039361264B9B6903F008033B603B6823
:10111C00002243F6FF71234800F0BBFD00224FF67E
:10112C00F061214800F0B5FD43F6FF73BB6001236D
:10113C00FB6000233B6102237B6107F10803194626
:10114C00184800F015FC0723BB600023FB6001234B
:10115C003B6107F108031946134800F009FC4FF6F0
:10116C00F063BB600123FB6000233B6102237B61C6
:10117C0007F1080319460C4800F0FAFB4FF48043C2
:10118C00BB600023FB6001233B6107F10803194698
:10119C00044800F0EDFB00BF1837BD4680BD00BF12
:1011AC000010024000080140000C014080B582B0E4
:1011BC0000AF786000F050F900BF0837BD4680BD25
:1011CC0080B400AF72B600BFFEE7000080B483B0FD
:1011DC0000AF00237B6015E00F497A6813465B0073
:1011EC001344DB000B4410331B68002B07D17A68C7
:1011FC0013465B001344DB00074A134406E07B688C
:10120C0001337B607B68132BE6DD002318460C371B
:10121C00BD4680BC704700BF1801002080B483B06D
:10122C0000AF78607B68002B08D07B6800221A61C5
:10123C007B6800221A607B6800225A6100BF0C3761
:10124C00BD4680BC7047000080B400AF094B1B68E2
:10125C000133084A1360074B1B68002B04D1054B64
:10126C001B680133034A1360024B1B681846BD46CA
:10127C0080BC7047CC00002080B483B000AF284BFA
:10128C0000221A60274B00221A6000237B603DE08D
:10129C0025497A6813465B001344DB000B4410337A
:1012AC0000221A6020497A6813465B001344DB0065
:1012BC000B4400221A601C497A6813465B001344E5
:1012CC00DB000B44043300221A6017497A6813467A
:1012DC005B001344DB000B44083300221A601249F4
:1012EC007A6813465B001344DB000B440C3300227A
:1012FC001A700D497A6813465B001344DB000B44EB
:10130C00143300221A607B6801337B607B68132BDB
:10131C00BEDD00BF00BF0C37BD4680BC704700BFB0
:10132C00C8000020CC0000201801002080B58AB035
:10133C0000AFF860B9607A60BB68454AA2FB032332
:10134C00DB08BB617B68424AA2FB0323DB087B61A1
:10135C00FFF73CFF38613B69002B01D1002372E0A1
:10136C003B69FA681A603B69BA695A603B697A69E9
:10137C009A603B6900221A73FFF766FF02463B69CD
:10138C001A613B6900225A61324B1B68002B05D154
:10139C00304A3B6913603B691B6954E02D4B1B6859
:1013AC005B68BA699A420FD22A4B1B685968294B61
:1013BC001B68BA698A1A5A60264B1A683B695A61CB
:1013CC00244A3B69136035E0224B1B687B62002387
:1013DC003B620023FB6110E07B6A5A68FB69134493
:1013EC00BA699A420DD37B6A5B68FA691344FB6154
:1013FC007B6A3B627B6A5B697B627B6A002BEBD10D
:10140C0000E000BFBA69FB69D21A3B695A607B6A7B
:10141C00002B06D07B6A5A683B695B68D21A7B6AE0
:10142C005A603B697A6A5A613B6A002B02D03B6A6C
:10143C003A695A613B695B68002B02D13B69012216
:10144C001A733B691B6918462837BD4680BD00BF1F
:10145C00CDCCCCCCC800002080B483B000AF0E4BF8
:10146C001B687B607B68002B10D07B685B68002B53
:10147C000DD07B685B685A1E7B685A607B685B6822
:10148C00002B04D17B6801221A7300E000BF0C37DB
:10149C00BD4680BC704700BFC800002080B582B03C
:1014AC0000AF204B1B68002B38D01E4B1B681B7BDE
:1014BC00002B33D01B4B1B687B601A4B1B685B6982
:1014CC00184A1360174B1B68002B08D0154B1B6870
:1014DC005B68002B03D1134B1B6801221A737B68CA
:1014EC001B683B603B6898477B689B68002B11D05E
:1014FC007B6818687B689A6813469B0013445B00F2
:10150C0019467B689A6813469B0013445B001A4685
:10151C00FFF70CFF7868FFF781FE00E000BF08378B
:10152C00BD4680BDC800002080B485B000AF154B0F
:10153C009B69144A43F001039361124B9B6903F0BE
:10154C000103BB60BB680F4BDB690E4A43F0805351
:10155C00D3610C4BDB6903F080537B607B680A4BD7
:10156C005B68FB60FB6823F0E063FB60FB6843F0A7
:10157C008063FB60044AFB68536000BF1437BD46B0
:10158C0080BC7047001002400000014080B584B060
:10159C0000AF78607B681B68B3F1804F13D10C4BA4
:1015AC00DB690B4A43F00103D361094BDB6903F0A0
:1015BC000103FB60FB68002200211C2000F0A1F954
:1015CC001C2000F0BAF900BF1037BD4680BD00BF2B
:1015DC000010024080B400AFFEE780B400AFFEE71D
:1015EC0080B400AFFEE780B400AFFEE780B400AF7C
:1015FC00FEE780B400AF00BFBD4680BC704780B42E
:10160C0000AF00BFBD4680BC704780B400AF00BFC8
:10161C00BD4680BC704780B500AF00F07FF800BFBE
:10162C0080BD000080B500AF024800F0DBFF00BFBA
:10163C0080BD00BFD000002080B400AF00BFBD460D
:10164C0080BC7047FFF7F8FF0B480C490C4A00238D
:10165C0002E0D458C4500433C4188C42F9D3094A5C
:10166C00094C002301E013600432A242FBD301F0C9
:10167C00F9FAFFF761FC70470000002068000020B9
:10168C000C2D000868000020FC020020FEE7000082
:10169C0080B500AF084B1B68074A43F0100313607A
:1016AC00032000F023F90F2000F008F8FFF73CFFAF
:1016BC000023184680BD00BF0020024080B582B0D8
:1016CC0000AF7860124B1A68124B1B7819464FF416
:1016DC007A73B3FBF1F3B2FBF3F3184600F03BF96A
:1016EC000346002B01D001230EE07B680F2B0AD898
:1016FC00002279684FF0FF3000F003F9064A7B684E
:10170C001360002300E0012318460837BD4680BD56
:10171C005C000020640000206000002080B400AF5A
:10172C00054B1B781A46054B1B681344034A136080
:10173C0000BFBD4680BC704764000020F80200204A
:10174C0080B400AF024B1B681846BD4680BC704786
:10175C00F802002080B485B000AF78607B6803F09D
:10176C000703FB600C4BDB68BB60BA684FF6FF03EA
:10177C001340BB60FB681A02BB68134343F0BF63A2
:10178C0043F40033BB60044ABB68D36000BF14371A
:10179C00BD4680BC704700BF00ED00E080B400AFD8
:1017AC00044BDB681B0A03F007031846BD4680BCDC
:1017BC00704700BF00ED00E080B483B000AF03467B
:1017CC00FB7197F90730002B0BDBFB7903F01F0241
:1017DC00064997F907305B09012000FA02F241F83B
:1017EC00232000BF0C37BD4680BC704700E100E0F1
:1017FC0080B483B000AF03463960FB7197F90730B2
:10180C00002B0ADB3B68DAB20C4997F9073012015E
:10181C00D2B20B4483F800230AE03B68DAB20849E1
:10182C00FB7903F00F03043B1201D2B20B441A767E
:10183C0000BF0C37BD4680BC704700BF00E100E024
:10184C0000ED00E080B489B000AFF860B9607A6058
:10185C00FB6803F00703FB61FB69C3F10703042B6F
:10186C0028BF0423BB61FB690433062B02D9FB6937
:10187C00033B00E000237B614FF0FF32BB6902FAAF
:10188C0003F3DA43BB681A407B699A404FF0FF318F
:10189C007B6901FA03F3D9437B680B401343184669
:1018AC002437BD4680BC704780B582B000AF7860ED
:1018BC007B68013BB3F1807F01D301230FE00A4A1F
:1018CC007B68013B53600F214FF0FF30FFF790FF17
:1018DC00054B00229A60044B07221A60002318461D
:1018EC000837BD4680BD00BF10E000E080B582B077
:1018FC0000AF78607868FFF72DFF00BF0837BD4652
:10190C0080BD80B586B000AF0346B9607A60FB73CA
:10191C0000237B61FFF742FF78617A68B9687869C8
:10192C00FFF790FF024697F90F3011461846FFF764
:10193C005FFF00BF1837BD4680BD80B582B000AFD9
:10194C000346FB7197F907301846FFF735FF00BFC8
:10195C000837BD4680BD80B582B000AF786078682E
:10196C00FFF7A2FF034618460837BD4680BD0000AE
:10197C0080B48BB000AF7860396000237B620023A9
:10198C003B6248E101227B6A02FA03F3FB613B688C
:10199C001B68FA691340BB61BA69FB699A4240F053
:1019AC0037813B685B68A34A93425ED0A14A93425D
:1019BC0075D8A14A934258D09F4A93426FD89F4AF8
:1019CC00934252D09D4A934269D89D4A93424CD03F
:1019DC009B4A934263D89B4A934246D0994A93427E
:1019EC005DD8122B2AD8122B59D801A252F823F009
:1019FC00771A0008511A0008631A0008A51A000883
:101A0C00AB1A0008AB1A0008AB1A0008AB1A000896
:101A1C00AB1A0008AB1A0008AB1A0008AB1A000886
:101A2C00AB1A0008AB1A0008AB1A0008AB1A000876
:101A3C00AB1A0008591A00086D1A0008824A934222
:101A4C0013D02CE03B68DB683B6229E03B68DB6829
:101A5C0004333B6224E03B68DB6808333B621FE0E5
:101A6C003B68DB680C333B621AE03B689B68002BDD
:101A7C0002D104233B6213E03B689B68012B05D128
:101A8C0008233B627B68FA691A6109E008233B6210
:101A9C007B68FA695A6103E000233B6200E000BFF7
:101AAC00BB69FF2B01D87B6801E07B6804337B6149
:101ABC00BB69FF2B02D87B6A9B0002E07B6A083B68
:101ACC009B003B617B691A680F213B6901FA03F3A8
:101ADC00DB431A40396A3B6901FA03F31A437B6909
:101AEC001A603B685B6803F08053002B00F0908019
:101AFC00564B9B69554A43F001039361534B9B69C9
:101B0C0003F00103BB60BB68514A7B6A9B0802333C
:101B1C0052F82330FB607B6A03F003039B000F2217
:101B2C0002FA03F3DB43FA681340FB607B68494A13
:101B3C0093420DD07B68484A934207D07B68474A52
:101B4C00934201D1022304E0032302E0012300E0CD
:101B5C0000237A6A02F0030292009340FA6813435E
:101B6C00FB603B497B6A9B080233FA6841F82320EF
:101B7C003B685B6803F48013002B06D0384B9A68E3
:101B8C003749BB6913438B6006E0354B9A68BB69D8
:101B9C00DB43334913408B603B685B6803F40013F1
:101BAC00002B06D02E4BDA682D49BB691343CB6052
:101BBC0006E02B4BDA68BB69DB4329491340CB6049
:101BCC003B685B6803F40033002B06D0244B5A6847
:101BDC002349BB6913434B6006E0214B5A68BB6930
:101BEC00DB431F4913404B603B685B6803F4803355
:101BFC00002B06D01A4B1A681949BB6913430B60AA
:101C0C0006E0174B1A68BB69DB43154913400B60A0
:101C1C007B6A01337B623B681A687B6A22FA03F3A6
:101C2C00002B7FF4AFAE00BF00BF2C37BD4680BC8D
:101C3C00704700BF0000321000003110000022106D
:101C4C0000002110000012100000111000100240C2
:101C5C000000014000080140000C01400010014050
:101C6C000004014080B485B000AF78600B467B80E7
:101C7C007B689A687B881340002B02D00123FB738E
:101C8C0001E00023FB73FB7B18461437BD4680BC78
:101C9C00704780B483B000AF78600B467B801346EE
:101CAC007B707B78002B03D07A887B681A6103E009
:101CBC007B881A047B681A6100BF0C37BD4680BC58
:101CCC00704780B485B000AF78600B467B807B6832
:101CDC00DB68FB607A88FB6813401A04FB68D94305
:101CEC007B880B401A437B681A6100BF1437BD46D2
:101CFC0080BC704780B586B000AF78607B68002BE5
:101D0C0001D101236CE27B681B6803F00103002BFB
:101D1C0000F08780924B5B6803F00C03042B0CD013
:101D2C008F4B5B6803F00C03082B12D18C4B5B6858
:101D3C0003F48033B3F5803F0BD1894B1B6803F45C
:101D4C000033002B6CD07B685B68002B68D10123BF
:101D5C0046E27B685B68B3F5803F06D1804B1B681D
:101D6C007F4A43F4803313602EE07B685B68002B62
:101D7C000CD17B4B1B687A4A23F480331360784B6D
:101D8C001B68774A23F4802313601DE07B685B6833
:101D9C00B3F5A02F0CD1724B1B68714A43F480230E
:101DAC0013606F4B1B686E4A43F4803313600BE077
:101DBC006B4B1B686A4A23F480331360684B1B68B7
:101DCC00674A23F4802313607B685B68002B13D075
:101DDC00FFF7B6FC386108E0FFF7B2FC02463B693E
:101DEC00D31A642B01D90323FAE15D4B1B6803F46E
:101DFC000033002BF0D014E0FFF7A2FC386108E0B0
:101E0C00FFF79EFC02463B69D31A642B01D90323CE
:101E1C00E6E1534B1B6803F40033002BF0D100E0D8
:101E2C0000BF7B681B6803F00203002B63D04C4B94
:101E3C005B6803F00C03002B0BD0494B5B6803F081
:101E4C000C03082B1CD1464B5B6803F48033002B2E
:101E5C0016D1434B1B6803F00203002B05D07B68A3
:101E6C001B69012B01D00123BAE13D4B1B6823F008
:101E7C00F8027B685B69DB00394913430B603AE07D
:101E8C007B681B69002B20D0364B01221A60FFF7B0
:101E9C0057FC386108E0FFF753FC02463B69D31A44
:101EAC00022B01D903239BE12D4B1B6803F002038A
:101EBC00002BF0D02A4B1B6823F0F8027B685B697F
:101ECC00DB00274913430B6015E0264B00221A60F8
:101EDC00FFF736FC386108E0FFF732FC02463B693D
:101EEC00D31A022B01D903237AE11D4B1B6803F093
:101EFC000203002BF0D17B681B6803F00803002B56
:101F0C003AD07B689B69002B19D0174B01221A60C1
:101F1C00FFF716FC386108E0FFF712FC02463B693C
:101F2C00D31A022B01D903235AE10D4B5B6A03F040
:101F3C000203002BF0D0012000F09AFA1CE00A4BAF
:101F4C0000221A60FFF7FCFB38610FE0FFF7F8FB8B
:101F5C0002463B69D31A022B08D9032340E100BF88
:101F6C000010024000004242800442429E4B5B6AD9
:101F7C0003F00203002BE9D17B681B6803F0040318
:101F8C00002B00F0A6800023FB75974BDB6903F058
:101F9C008053002B0DD1944BDB69934A43F0805353
:101FAC00D361914BDB6903F08053BB60BB680123A9
:101FBC00FB758E4B1B6803F48073002B18D18B4B75
:101FCC001B688A4A43F480731360FFF7B9FB3861CE
:101FDC0008E0FFF7B5FB02463B69D31A642B01D925
:101FEC000323FDE0814B1B6803F48073002BF0D0BE
:101FFC007B68DB68012B06D17B4B1B6A7A4A43F06A
:10200C00010313622DE07B68DB68002B0CD1764B4F
:10201C001B6A754A23F001031362734B1B6A724AE5
:10202C0023F0040313621CE07B68DB68052B0CD1E6
:10203C006D4B1B6A6C4A43F0040313626A4B1B6AB8
:10204C00694A43F0010313620BE0674B1B6A664A53
:10205C0023F001031362644B1B6A634A23F00403ED
:10206C0013627B68DB68002B15D0FFF769FB3861C6
:10207C000AE0FFF765FB02463B69D31A41F288324E
:10208C00934201D90323ABE0574B1B6A03F00203C5
:10209C00002BEED014E0FFF753FB38610AE0FFF79A
:1020AC004FFB02463B69D31A41F28832934201D965
:1020BC00032395E04C4B1B6A03F00203002BEED17B
:1020CC00FB7D012B05D1484BDB69474A23F080533C
:1020DC00D3617B68DB69002B00F08180424B5B682D
:1020EC0003F00C03082B61D07B68DB69022B46D113
:1020FC003F4B00221A60FFF723FB386108E0FFF723
:10210C001FFB02463B69D31A022B01D9032367E05C
:10211C00354B1B6803F00073002BF0D17B681B6AF6
:10212C00B3F5803F08D1304B5B6823F400327B68F9
:10213C009B682D4913434B602B4B5B6823F4741243
:10214C007B68196A7B685B6A0B43274913434B60B6
:10215C00274B01221A60FFF7F3FA386108E0FFF70A
:10216C00EFFA02463B69D31A022B01D9032337E05D
:10217C001D4B1B6803F00073002BF0D02FE01C4BA1
:10218C0000221A60FFF7DCFA386108E0FFF7D8FA92
:10219C0002463B69D31A022B01D9032320E0124BD0
:1021AC001B6803F00073002BF0D118E07B68DB692F
:1021BC00012B01D1012313E00B4B5B68FB60FB6827
:1021CC0003F480327B681B6A9A4206D1FB6803F4E5
:1021DC0070127B685B6A9A4201D0012300E00023F5
:1021EC0018461837BD4680BD0010024000700040F4
:1021FC006000424280B584B000AF786039607B6883
:10220C00002B01D10123D0E06A4B1B6803F00703BC
:10221C003A689A4210D9674B1B6823F0070265494C
:10222C003B6813430B60634B1B6803F007033A686E
:10223C009A4201D00123B8E07B681B6803F00203CB
:10224C00002B20D07B681B6803F00403002B05D007
:10225C00594B5B68584A43F4E06353607B681B68D6
:10226C0003F00803002B05D0534B5B68524A43F430
:10227C0060535360504B5B6823F0F0027B689B68A3
:10228C004D4913434B607B681B6803F00103002B23
:10229C0040D07B685B68012B07D1474B1B6803F46C
:1022AC000033002B15D101237FE07B685B68022B88
:1022BC0007D1414B1B6803F00073002B09D101239C
:1022CC0073E03D4B1B6803F00203002B01D101238B
:1022DC006BE0394B5B6823F003027B685B68364923
:1022EC0013434B60FFF72CFAF8600AE0FFF728FA6B
:1022FC000246FB68D31A41F28832934201D9032378
:10230C0053E02D4B5B6803F00C027B685B689B0011
:10231C009A42EBD1274B1B6803F007033A689A42A9
:10232C0010D2244B1B6823F0070222493B6813434D
:10233C000B60204B1B6803F007033A689A4201D0EC
:10234C00012332E07B681B6803F00403002B08D0E8
:10235C00194B5B6823F4E0627B68DB681649134316
:10236C004B607B681B6803F00803002B09D0124BF1
:10237C005B6823F460527B681B69DB000E491343D6
:10238C004B6000F021F802460B4B5B681B0903F015
:10239C000F030A49CB5C22FA03F3094A1360094B79
:1023AC001B681846FFF78AF9002318461037BD46FC
:1023BC0080BD00BF0020024000100240E02C00084D
:1023CC005C0000206000002080B487B000AF0023C8
:1023DC00FB600023BB6000237B6100237B60002338
:1023EC003B611E4B5B68FB60FB6803F00C03042B2A
:1023FC0002D0082B03D027E0194B3B6127E0FB6888
:10240C009B0C03F00F03174AD35C7B60FB6803F44F
:10241C008033002B10D0114B5B685B0C03F0010375
:10242C00114AD35CBB607B680D4A02FB03F2BB68AC
:10243C00B2FBF3F37B6104E07B680C4A02FB03F311
:10244C007B617B693B6102E0054B3B6100BF3B69F3
:10245C0018461C37BD4680BC704700BF00100240B8
:10246C0000127A00F02C0008002D000800093D0035
:10247C0080B485B000AF78600A4B1B680A4AA2FB97
:10248C0003235B0A7A6802FB03F3FB6000BFFB6863
:10249C005A1EFA60002BF9D100BF00BF1437BD469D
:1024AC0080BC70475C000020D34D621080B582B0B8
:1024BC0000AF78607B68002B01D1012341E07B6881
:1024CC0093F83D30DBB2002B06D17B68002283F8F9
:1024DC003C207868FFF75AF87B68022283F83D208D
:1024EC007B681A687B6804331946104600F056FA6C
:1024FC007B68012283F846207B68012283F83E200A
:10250C007B68012283F83F207B68012283F84020FE
:10251C007B68012283F841207B68012283F84220EA
:10252C007B68012283F843207B68012283F84420D6
:10253C007B68012283F845207B68012283F83D20CB
:10254C00002318460837BD4680BD000080B485B016
:10255C0000AF78607B6893F83D30DBB2012B01D083
:10256C00012335E07B68022283F83D207B681B68E1
:10257C00DA687B681B6842F00102DA607B681B68D2
:10258C00164A934209D07B681B68B3F1804F04D084
:10259C007B681B68124A934211D17B681B689B684D
:1025AC0003F00703FB60FB68062B10D07B681B68ED
:1025BC001A687B681B6842F001021A6007E07B68AE
:1025CC001B681A687B681B6842F001021A600023C2
:1025DC0018461437BD4680BC704700BF002C014024
:1025EC000004004080B584B000AF78607B681B6845
:1025FC00DB68FB607B681B681B69BB60BB6803F016
:10260C000203002B20D0FB6803F00203002B1BD02D
:10261C007B681B686FF002021A617B6801221A77D3
:10262C007B681B689B6903F00303002B03D078685D
:10263C0000F098F905E0786800F08BF9786800F004
:10264C009AF97B6800221A77BB6803F00403002B0D
:10265C0020D0FB6803F00403002B1BD07B681B68A5
:10266C006FF004021A617B6802221A777B681B6880
:10267C009B6903F44073002B03D0786800F072F967
:10268C0005E0786800F065F9786800F074F97B680B
:10269C0000221A77BB6803F00803002B20D0FB68DC
:1026AC0003F00803002B1BD07B681B686FF008023B
:1026BC001A617B6804221A777B681B68DB6903F05C
:1026CC000303002B03D0786800F04CF905E0786820
:1026DC0000F03FF9786800F04EF97B6800221A7719
:1026EC00BB6803F01003002B20D0FB6803F0100331
:1026FC00002B1BD07B681B686FF010021A617B6883
:10270C0008221A777B681B68DB6903F44073002B83
:10271C0003D0786800F026F905E0786800F019F924
:10272C00786800F028F97B6800221A77BB6803F000
:10273C000103002B0CD0FB6803F00103002B07D026
:10274C007B681B686FF001021A617868FEF72EFD3A
:10275C00BB6803F08003002B0CD0FB6803F08003F4
:10276C00002B07D07B681B686FF080021A617868B9
:10277C0000F06FFABB6803F04003002B0CD0FB6831
:10278C0003F04003002B07D07B681B686FF04002FE
:10279C001A61786800F0F8F8BB6803F02003002B8E
:1027AC000CD0FB6803F02003002B07D07B681B6860
:1027BC006FF020021A61786800F042FA00BF1037FF
:1027CC00BD4680BD80B584B000AF78603960002311
:1027DC00FB737B6893F83C30012B01D10223B4E0EE
:1027EC007B68012283F83C207B68022283F83D2021
:1027FC007B681B689B68BB60BB6823F07703BB607E
:10280C00BB6823F47F43BB607B681B68BA689A6023
:10281C003B681B68B3F5005F3ED0B3F5005F00F278
:10282C008780B3F5805F00F08680B3F5805F7FD83A
:10283C00702B1AD0702B7BD8602B50D0602B77D894
:10284C00502B3CD0502B73D8402B58D0402B6FD8EA
:10285C00302B64D0302B6BD8202B60D0202B67D83A
:10286C00002B5CD0102B5AD062E07B6818683B6858
:10287C0099683B685A683B68DB6800F06AF97B68CA
:10288C001B689B68BB60BB6843F07703BB607B68CD
:10289C001B68BA689A604FE07B6818683B68996857
:1028AC003B685A683B68DB6800F053F97B681B682F
:1028BC009A687B681B6842F480429A603CE07B68B3
:1028CC0018683B6859683B68DB681A4600F0CAF820
:1028DC007B681B685021184600F021F92CE07B68BE
:1028EC0018683B6859683B68DB681A4600F0E8F8E2
:1028FC007B681B686021184600F011F91CE07B68AE
:10290C0018683B6859683B68DB681A4600F0AAF8FF
:10291C007B681B684021184600F001F90CE07B68CD
:10292C001A683B681B681946104600F0F8F803E07B
:10293C000123FB7300E000BF7B68012283F83D207C
:10294C007B68002283F83C20FB7B18461037BD4681
:10295C0080BD80B483B000AF786000BF0C37BD463B
:10296C0080BC704780B483B000AF786000BF0C3778
:10297C00BD4680BC704780B483B000AF786000BFA8
:10298C000C37BD4680BC704780B483B000AF786014
:10299C0000BF0C37BD4680BC7047000080B485B0CA
:1029AC0000AF786039607B681B68FB607B682B4AE2
:1029BC00934207D07B68B3F1804F03D07B68284AE1
:1029CC00934208D1FB6823F07003FB603B685B68A3
:1029DC00FA681343FB607B68204A934207D07B68FC
:1029EC00B3F1804F03D07B681D4A934208D1FB683A
:1029FC0023F44073FB603B68DB68FA681343FB60AD
:102A0C00FB6823F080023B685B691343FB607B68C7
:102A1C00FA681A603B689A687B68DA623B681A68E5
:102A2C007B689A627B680D4A934203D13B681A69B2
:102A3C007B681A637B6801225A617B681B6903F00F
:102A4C000103002B05D07B681B6923F001027B6816
:102A5C001A6100BF1437BD4680BC7047002C014082
:102A6C000004004080B487B000AFF860B9607A60B1
:102A7C00FB681B6A7B61FB681B6A23F00102FB6825
:102A8C001A62FB689B693B613B6923F0F0033B6175
:102A9C007B681B013A6913433B617B6923F00A0392
:102AAC007B617A69BB6813437B61FB683A699A6105
:102ABC00FB687A691A6200BF1C37BD4680BC704740
:102ACC0080B487B000AFF860B9607A60FB681B6AAD
:102ADC007B61FB681B6A23F01002FB681A62FB68BF
:102AEC009B693B613B6923F470433B617B681B032F
:102AFC003A6913433B617B6923F0A0037B61BB689C
:102B0C001B017A6913437B61FB683A699A61FB6824
:102B1C007A691A6200BF1C37BD4680BC704780B40E
:102B2C0085B000AF786039607B689B68FB60FB68A0
:102B3C0023F07003FB603A68FB68134343F0070310
:102B4C00FB607B68FA689A6000BF1437BD4680BC96
:102B5C00704780B487B000AFF860B9607A603B60B2
:102B6C00FB689B687B617B6923F47F437B613B68DB
:102B7C001A027B681A43BB6813437A6913437B615F
:102B8C00FB687A699A6000BF1C37BD4680BC7047F1
:102B9C0080B485B000AF786039607B6893F83C30C6
:102BAC00012B01D1022341E07B68012283F83C20F8
:102BBC007B68022283F83D207B681B685B68FB60A6
:102BCC007B681B689B68BB60FB6823F07003FB6031
:102BDC003B681B68FA681343FB607B681B68FA68E8
:102BEC005A607B681B68144A934209D07B681B6847
:102BFC00B3F1804F04D07B681B68104A93420CD110
:102C0C00BB6823F08003BB603B685B68BA68134306
:102C1C00BB607B681B68BA689A607B68012283F88A
:102C2C003D207B68002283F83C2000231846143793
:102C3C00BD4680BC704700BF002C01400004004022
:102C4C0080B483B000AF786000BF0C37BD4680BC49
:102C5C00704780B483B000AF786000BF0C37BD46BE
:102C6C0080BC704770B500260C4D0D4C641BA41035
:102C7C00A64209D100F022F800260A4D0A4C641B2A
:102C8C00A410A64205D170BD55F8043B98470136F7
:102C9C00EEE755F8043B98470136F2E7042D00089F
:102CAC00042D0008042D0008082D000803460244DA
:102CBC00934200D1704703F8011BF9E7F8B500BF48
:102CCC00F8BC08BC9E467047F8B500BFF8BC08BC01
:042CDC009E46704759
:102CE00000000000000000000102030406070809BC
:102CF00002030405060708090A0B0C0D0E0F10103D
:042D000001020000CC
:042D04003101000891
:042D08000D010008B1
:102D0C0000000000000001010000010101010000B1
:102D1C0001000001000000000001010001000001A1
:102D2C000100000001000001000000010000000093
:102D3C000000000001010101000000000000000083
:102D4C000000000100000502030A00001E00000044
:102D5C0005000000020000000300000000127A00D1
:082D6C0010000000010000004E
:040000050800165188
:00000001FF
