:020000040800F2
:10000000002800207D140008A1130008A713000891
:10001000AD130008B3130008B91300080000000076
:10002000000000000000000000000000BF130008F6
:10003000CB13000800000000D7130008E3130008EA
:10004000C5140008C5140008C5140008C51400082C
:10005000C5140008C5140008C5140008C51400081C
:10006000C5140008C5140008C5140008C51400080C
:10007000C5140008C5140008C5140008C5140008FC
:10008000C5140008C5140008C5140008C5140008EC
:10009000C5140008C5140008C5140008C5140008DC
:1000A000C5140008C5140008C5140008C5140008CC
:1000B000F1130008C514000800000000C514000872
:1000C000C51400080000000000000000C51400086E
:1000D00000000000C5140008C5140008000000005E
:1000E000C5140008C5140008C5140008000000006D
:1000F0000000000000000000000000000000000000
:0C01000000000000000000005FF808F1A3
:10010C0010B5054C237833B9044B13B10448AFF345
:10011C0000800123237010BDA80100200000000006
:10012C00A82C000808B5034B1BB103490348AFF3D7
:10013C00008008BD00000000AC010020A82C0008C5
:10014C0080B500AF01221021094801F0B8FC012252
:10015C002021074801F0B3FC01224021044801F0A2
:10016C00AEFC01228021024801F0A9FC00BF80BD39
:10017C00000C014080B582B000AF78607B68002B2A
:10018C0071DB7B68092B6EDC39497A681346DB001E
:10019C009B1A9B000B441B68DBB21A468021354826
:1001AC0001F08DFC32497A681346DB009B1A9B00E8
:1001BC000B4404331B68DBB21A464FF480712D4894
:1001CC0001F07DFC2A497A681346DB009B1A9B00E0
:1001DC000B4408331B68DBB21A464FF400712548F8
:1001EC0001F06DFC22497A681346DB009B1A9B00D8
:1001FC000B440C331B68DBB21A464FF480611D486C
:10020C0001F05DFC1A497A681346DB009B1A9B00CF
:10021C000B4410331B68DBB21A464FF400611548CF
:10022C0001F04DFC12497A681346DB009B1A9B00C7
:10023C000B4414331B68DBB21A464FF480510D4843
:10024C0001F03DFC0A497A681346DB009B1A9B00BF
:10025C000B4418331B68DBB21A464FF400510548A7
:10026C0001F02DFC00E000BF0837BD4680BD00BF8B
:10027C00000000200008014080B582B000AF78601B
:10028C007B68002B72DB7B68092B6FDC39497A6841
:10029C001346DB009B1A9B000B441B68DBB21A460F
:1002AC004FF40071344801F00AFC32497A68134665
:1002BC00DB009B1A9B000B4404331B68DBB21A4611
:1002CC004FF480612C4801F0FAFB2A497A681346F6
:1002DC00DB009B1A9B000B4408331B68DBB21A46ED
:1002EC004FF40061244801F0EAFB22497A68134676
:1002FC00DB009B1A9B000B440C331B68DBB21A46C9
:10030C004FF480511C4801F0DAFB1A497A68134605
:10031C00DB009B1A9B000B4410331B68DBB21A46A4
:10032C004FF40051144801F0CAFB12497A68134685
:10033C00DB009B1A9B000B4414331B68DBB21A4680
:10034C004FF480410C4801F0BAFB0A497A68134615
:10035C00DB009B1A9B000B4418331B68DBB21A465C
:10036C004FF40041044801F0AAFB00E000BF08373D
:10037C00BD4680BD00000020000C014080B483B05D
:10038C0000AF78607B680D4A82FB03129210DB177A
:10039C00D31A0B4A13607968084B83FB01239A101C
:1003AC00CB17D21A13469B0013445B00CA1A044B9A
:1003BC005A6000BF0C37BD4680BC704767666666E6
:1003CC00F001002080B483B000AF78607B680D4AE8
:1003DC0082FB03129210DB17D31A0B4A93607968D5
:1003EC00084B83FB01239A10CB17D21A13469B00A0
:1003FC0013445B00CA1A044BDA6000BF0C37BD46CD
:10040C0080BC704767666666F001002080B500AF5F
:10041C00FFF796FE254B1B68032B37D801A252F829
:10042C0023F000BF41040008570400086D040008C5
:10043C00830400081E4B1B681846FFF79BFE002226
:10044C0010211C4801F03BFB21E0194B5B6818465E
:10045C00FFF790FE00222021164801F030FB16E039
:10046C00134B9B681846FFF707FF002240211148E9
:10047C0001F025FB0BE00E4BDB681846FFF7FCFE8A
:10048C00002280210B4801F01AFB00E000BF074B53
:10049C001B6801335A4203F0030302F0030258BFF6
:1004AC005342024A136000BF80BD00BFC40100204C
:1004BC00F0010020000C014080B500AF0121024882
:1004CC0001F015FB00BF80BD0008014080B500AFF6
:1004DC000221044801F00BFB1021024801F007FB3C
:1004EC0000BF80BD0008014080B500AF0421044866
:1004FC0001F0FDFA2021024801F0F9FA00BF80BD9D
:10050C000008014080B500AF0821044801F0EFFA63
:10051C004021024801F0EBFA00BF80BD0008014009
:10052C0080B582B000AF786039607B68DBB21A4668
:10053C000221074801F0C3FA3B68DBB21A461021CE
:10054C00034801F0BCFA00BF0837BD4680BD00BFB0
:10055C000008014080B582B000AF786039607B68DC
:10056C00DBB21A460421074801F0A9FA3B68DBB25A
:10057C001A462021034801F0A2FA00BF0837BD46F5
:10058C0080BD00BF0008014080B582B000AF78602C
:10059C0039607B68DBB21A460821074801F08FFAF4
:1005AC003B68DBB21A464021034801F088FA00BFD1
:1005BC000837BD4680BD00BF0008014080B500AFC4
:1005CC0001210120FFF7ACFF01210120FFF7C2FF41
:1005DC0001210120FFF7D8FF00BF80BD80B500AF1F
:1005EC008B4B1B681E2B40F01081002000F0D6FBBB
:1005FC000346002B17D0874B1B68002B13D1854B60
:10060C0001221A60FFF7DAFFFFF79AFD804B1F22D9
:10061C001A60814B0A221A600020FFF7AFFE0020FF
:10062C00FFF7D0FEF2E0002000F0B8FB0346002BF1
:10063C0002D1784B00221A60784B1B68002B00F318
:10064C00D280764B0A221A60734B1B68042B00F283
:10065C00C68001A252F823F079060008AF06000804
:10066C00010700084D0700089F0700086C4B1B682A
:10067C006C4A13606C4B1B686C4A13606C4B1B68A8
:10068C006C4A1360644B01221A606A4B1B686A4AFD
:10069C001360684B1A68654B1B681344674A1360F8
:1006AC00A6E000210120FFF73BFF01210120FFF70D
:1006BC0051FF01210020FFF767FF5E4B1B685E4A6C
:1006CC0013605C4B1A68584B1B6813445B4A1360ED
:1006DC00584B1B68002B07DC4F4B02221A60524B05
:1006EC001B68524A136083E0524B1B68013B514A12
:1006FC0013607DE000210120FFF712FF0121002093
:10070C00FFF728FF01210120FFF73EFF474B1B6835
:10071C00494A1360454B1B68484A1360434B1B689E
:10072C00002B07DC3C4B03221A60414B1B68414AEF
:10073C0013605DE03D4B1B68013B3C4A136057E086
:10074C0001210020FFF7ECFE01210120FFF702FF41
:10075C0000210120FFF718FF364B1A68324B1B683B
:10076C001344354A1360334B1B68344A1360314BC6
:10077C001B68002B07DC284B04221A602A4B1B68D1
:10078C002A4A136034E02B4B1B68013B294A136047
:10079C002EE001210020FFF7C3FE00210120FFF70E
:1007AC00D9FE01210120FFF7EFFE204B1B68224AE6
:1007BC0013601E4B1B68214A13601C4B1B68002BDB
:1007CC0007DC154B01221A60194B1B68194A136080
:1007DC000EE0164B1B68013B144A136008E00E4BED
:1007EC0000221A6004E00D4B1B68013B0B4A13609E
:1007FC00114B1B681846FFF7C1FD104B1B681846C0
:10080C00FFF7E0FDFFF702FE00E000BF80BD00BF78
:10081C0028010020E4010020E0010020D00100208C
:10082C002C01002018010020300100201C010020A8
:10083C003401002020010020C8010020CC01002040
:10084C0080B500AF7A4B1B68202B04D0794B4FF04E
:10085C00FF321A60EAE0002000F0A0FA0346002BF9
:10086C0024D0754B1B68002B20D1734B01221A60CE
:10087C00FFF7A4FEFFF764FC704B1B68704A136013
:10088C00704B1B68704A1360704B1B68704A136086
:10089C00674B1E221A606F4B03221A60654B4FF098
:1008AC00FF321A60644B01221A60BFE0002000F096
:1008BC0075FA0346002B02D15F4B00221A6001200F
:1008CC0000F06CFA0346002B13D0634B1B68002B13
:1008DC000FD1614B01221A60604B1B6801335F4AD8
:1008EC0013605E4B1B68632B0CDD5C4B00221A60A3
:1008FC0008E0012000F052FA0346002B02D1564BBF
:10090C0000221A60022000F049FA0346002B36D070
:10091C00534B1B68002B32D1514B01221A604D4BAB
:10092C001B68142B0BD14D4B1B68444A1360454B71
:10093C001B684A4A1360474B15221A6029E0454B45
:10094C001B68152B0BD1454B1B683E4A13603F4B64
:10095C001B68424A13603F4B16221A6019E03D4B4C
:10096C001B68162B15D13D4B1B68384A1360334B53
:10097C001B683A4A1360374B14221A6009E00220B4
:10098C0000F00CFA0346002B04D0354B00221A6001
:10099C0000E000BF334B1B68002B3BDC314B0522C6
:1009AC001A602C4B1B68162B22D0162B2EDC142B0A
:1009BC0002D0152B0ED029E00120FFF7DFFCFFF74A
:1009CC0085FD01210120FFF7C5FD01210120FFF765
:1009DC00DBFD24E00220FFF7D1FCFFF785FD0121B0
:1009EC000120FFF79DFD01210120FFF7CDFD16E051
:1009FC000320FFF7C3FCFFF785FD01210120FFF762
:100A0C008FFD01210120FFF7A5FD08E0114B1422F9
:100A1C001A6004E0134B1B68013B124A13600F4B26
:100A2C001B681846FFF7CEFCFFF7F0FC80BD00BF3B
:100A3C002801002024010020E40100202C010020CA
:100A4C0018010020300100201C010020340100207E
:100A5C0020010020E0010020E8010020D40100204A
:100A6C00EC010020D801002080B500AF6B4B1B6857
:100A7C001F2B40F0D180002000F090F90346002B92
:100A8C0018D0674B1B68002B14D1654B01221A60E0
:100A9C00FFF794FDFFF754FB604B20221A60614B6B
:100AAC0014221A60604B14221A60604B1B68604A57
:100ABC001360B2E0002000F071F90346002B02D164
:100ACC00574B00221A60012000F068F90346002BF6
:100ADC002CD0584B1B68002B28D1564B01221A6086
:100AEC00504B1B680C2B0ED1FFF72AFB524B1A688C
:100AFC0013469B0013445B001A46504B1A60494B3B
:100B0C000D221A601CE0474B1B680A2B18D1FFF70B
:100B1C0017FB494B1A6813469B0013445B001A469B
:100B2C00464B1A603F4B0B221A6009E0012000F083
:100B3C0035F90346002B04D13E4B00221A6000E02D
:100B4C0000BF384B1B680D2B0CD13C4B1B68002B8A
:100B5C0003DC344B0A221A6004E0384B1B68013B5F
:100B6C00364A13602F4B1B680B2B0CD1334B1B6875
:100B7C00002B03DC2B4B0C221A6004E02F4B1B6860
:100B8C00013B2E4A1360274B1B680A3B032B3FD8B3
:100B9C0001A252F823F000BF030C0008E90B000877
:100BAC00CF0B0008B50B000801210020FFF7B8FCA3
:100BBC0000210120FFF7CEFC01210120FFF7E4FC0E
:100BCC002BE001210020FFF7ABFC01210120FFF7F6
:100BDC00C1FC00210120FFF7D7FC1EE00021012001
:100BEC00FFF79EFC01210020FFF7B4FC012101203E
:100BFC00FFF7CAFC11E000210120FFF791FC012155
:100C0C000120FFF7A7FC01210020FFF7BDFC04E049
:100C1C00044B0A221A6000E000BF80BD28010020AE
:100C2C00E4010020E0010020240100202C01002020
:100C3C00D4010020E801002030010020DC0100205C
:100C4C0080B582B000AF00237B6090E04C4A7B689B
:100C5C00134419784B4A7B6813440A461A707B6814
:100C6C00032B3CD801A252F823F000BF890C0008DA
:100C7C00A10C0008B90C0008D10C00080121424855
:100C8C0000F006FF034619463D4A7B6813440A46AA
:100C9C001A7025E002213C4800F0FAFE0346194682
:100CAC00374A7B6813440A461A7019E00421364807
:100CBC0000F0EEFE03461946314A7B6813440A469F
:100CCC001A700DE04FF48041304800F0E1FE03460D
:100CDC0019462B4A7B6813440A461A7000E000BF81
:100CEC00274A7B6813441A7826497B680B441B7887
:100CFC009A4239D1224A7B6813441978244A7B687A
:100D0C0013440A461A70224A7B6813441B78002B42
:100D1C0020D1204A7B6813441B78002B09D11E4A32
:100D2C007B6832F81330013B99B21B4A7B6822F87E
:100D3C001310194A7B6832F81330002B14D1154A62
:100D4C007B68134401221A70134A7B68642122F8D1
:100D5C00131009E0104A7B68642122F813100D4A25
:100D6C007B68134400221A707B6801337B607B68BC
:100D7C00032B7FF76BAF00BF00BF0837BD4680BDAC
:100D8C000402002008020020000C01400008014071
:100D9C00000200200C0200201002002080B483B05E
:100DAC0000AF0346FB71FB79032B01D9002307E04D
:100DBC00FB79064AD35C002B0CBF01230023DBB26A
:100DCC0018460C37BD4680BC704700BF000200209F
:100DDC0080B500AF00F072FB00F02CF800F0B2F818
:100DEC0000F064F80E4801F0C7FA00F02DF9642207
:100DFC0000210C4800F038F9642200210A4800F068
:100E0C0033F964220021094800F02EF94FF47A726C
:100E1C004FF47A71064800F027F900F0D1F9FCE79D
:100E2C002C020020E9050008750A00084D0800088E
:100E3C00C504000880B590B000AF07F11803282254
:100E4C000021184601F05EFE3B1D00221A605A601C
:100E5C009A60DA601A610223BB610123BB62102322
:100E6C00FB6200237B6307F11803184600F058FE61
:100E7C000346002B01D000F0E1F80F237B60002328
:100E8C00BB600023FB6000233B6100237B613B1DA7
:100E9C000021184601F0C4F80346002B01D000F0E5
:100EAC00CDF800BF4037BD4680BD000080B586B090
:100EBC0000AF07F1080300221A605A609A60DA60EA
:100ECC003B4600221A605A601D4B4FF080421A605C
:100EDC001B4B41F63F725A60194B00229A60184B1B
:100EEC000922DA60164B00221A61154B00229A6116
:100EFC00134801F0F1F90346002B01D000F09EF8E5
:100F0C004FF48053BB6007F1080319460C4801F0FD
:100F1C006FFB0346002B01D000F090F800233B60E0
:100F2C0000237B603B461946054801F047FD03460C
:100F3C00002B01D000F082F800BF1837BD4680BDF1
:100F4C002C02002080B586B000AF07F10803002208
:100F5C001A605A609A60DA602F4B9B692E4A43F0F4
:100F6C00040393612C4B9B6903F004037B607B6847
:100F7C00294B9B69284A43F008039361264B9B69D4
:100F8C0003F008033B603B68002243F6FF712348E3
:100F9C0000F095FD00224FF6F061214800F08FFD26
:100FAC0043F6FF73BB600123FB6000233B6102230C
:100FBC007B6107F108031946184800F0EFFB072383
:100FCC00BB600023FB6001233B6107F1080319465A
:100FDC00134800F0E3FB4FF6F063BB600123FB60AA
:100FEC0000233B6102237B6107F1080319460C487F
:100FFC0000F0D4FB4FF48043BB600023FB60012363
:10100C003B6107F108031946044800F0C7FB00BF19
:10101C001837BD4680BD00BF0010024000080140DB
:10102C00000C014080B582B000AF786000F0A4F8ED
:10103C00FFF706FE00BF0837BD4680BD80B400AF89
:10104C0072B600BFFEE7000080B400AF044B002274
:10105C001A60044B00221A6000BFBD4680BC70476A
:10106C001C0200201802002080B58AB000AFF86086
:10107C00B9607A60BB683D4AA2FB0323DB08BB6105
:10108C007B683A4AA2FB0323DB087B61182001F042
:10109C0029FD03463B613B69002B01D1002361E034
:1010AC003B69FA681A603B69BA695A603B697A69AC
:1010BC009A60BB69002B0CBF01230023DBB21A46DC
:1010CC003B691A7300F0F8F802463B691A613B69F8
:1010DC0000225A61264B1B68002B05D1244A3B6920
:1010EC0013603B691B693DE000237B62204B1B684E
:1010FC003B620023FB6109E03B6A5B68FA691344BD
:10110C00FB613B6A7B623B6A5B693B623B6A002B1F
:10111C0006D03B6A5A68FB691344BA699A42EBD20F
:10112C00BA69FB69D21A3B695A603B6A002B06D03C
:10113C003B6A5A683B695B68D21A3B6A5A607B6AA5
:10114C00002B07D10A4B1A683B695A61084A3B6964
:10115C00136005E03B693A6A5A617B6A3A695A61E5
:10116C00044B1B6818462837BD4680BDCDCCCCCC73
:10117C001C0200201802002080B400AF0F4B1B682B
:10118C00002B17D00D4B1B681B7B002B12D10B4B6C
:10119C001B685B68002B0DD0084B1B685A68013A22
:1011AC005A60064B1B685B68002B03D1034B1B6812
:1011BC0001221A7300BFBD4680BC70471C02002080
:1011CC0080B584B000AF184B1B68002B28D0164B91
:1011DC001B681B7B002B23D0134B1B68FB60FB682D
:1011EC001B689847FB689B68002B14D0FB685A68F7
:1011FC0013469B0013445B00BB60FB689A68134664
:10120C009B0013445B007B60FB681B687A68B968C1
:10121C001846FFF729FFFB681B69184600F006F813
:10122C0000BF1037BD4680BD1C02002080B584B0C5
:10123C0000AF78607B68002B03D01E4B1B68002B23
:10124C0001D1002331E00023FB601A4B1B68BB600B
:10125C0027E0BB681B697A689A421DD1BB685B6941
:10126C00002B08D0BB685B695968BB685A68BB68BF
:10127C005B690A445A60FB68002B04D1BB685B694C
:10128C000C4A136003E0BB685A69FB685A61B86882
:10129C0001F030FC012308E0BB68FB60BB685B69B4
:1012AC00BB60BB68002BD4D1002318461037BD4659
:1012BC0080BD00BF1C02002080B400AF094B1B682E
:1012CC000133084A1360074B1B68002B04D1054BF4
:1012DC001B680133034A1360024B1B681846BD465A
:1012EC0080BC70471802002080B485B000AF154B4D
:1012FC009B69144A43F001039361124B9B6903F001
:10130C000103BB60BB680F4BDB690E4A43F0805393
:10131C00D3610C4BDB6903F080537B607B680A4B19
:10132C005B68FB60FB6823F0E063FB60FB6843F0E9
:10133C008063FB60044AFB68536000BF1437BD46F2
:10134C0080BC7047001002400000014080B584B0A2
:10135C0000AF78607B681B68B3F1804F13D10C4BE6
:10136C00DB690B4A43F00103D361094BDB6903F0E2
:10137C000103FB60FB68002200211C2000F0D7F960
:10138C001C2000F0F0F900BF1037BD4680BD00BF37
:10139C000010024080B400AFFEE780B400AFFEE75F
:1013AC0080B400AFFEE780B400AFFEE780B400AFBE
:1013BC00FEE780B400AF00BFBD4680BC704780B470
:1013CC0000AF00BFBD4680BC704780B400AF00BF0B
:1013DC00BD4680BC704780B500AF00F0B5F800BFCB
:1013EC0080BD000080B500AF024801F011F800BFCD
:1013FC0080BD00BF2C02002080B586B000AF7860A5
:10140C00144A154BD31A7B617B693B61134B1B68E8
:10141C00002B02D1114B124A1A60104B1A687B68D0
:10142C0013443A699A4207D201F032FB03460C226C
:10143C001A604FF0FF3309E0084B1B68FB60074B49
:10144C001A687B681344054A1360FB681846183702
:10145C00BD4680BD002800200004000020020020B2
:10146C008802002080B400AF00BFBD4680BC70472E
:10147C00FFF7F8FF0B480C490C4A002302E0D45844
:10148C00C4500433C4188C42F9D3094A094C0023C4
:10149C0001E013600432A242FBD301F0FFFAFFF724
:1014AC0097FC704700000020A8010020EC2C0008DD
:1014BC00A801002088020020FEE7000080B500AFE4
:1014CC00084B1B68074A43F010031360032000F01D
:1014DC0023F90F2000F008F8FFF706FF0023184649
:1014EC0080BD00BF0020024080B582B000AF7860A4
:1014FC00124B1A68124B1B7819464FF47A73B3FBD4
:10150C00F1F3B2FBF3F3184600F03BF90346002B62
:10151C0001D001230EE07B680F2B0AD800227968DA
:10152C004FF0FF3000F003F9064A7B68136000238C
:10153C0000E0012318460837BD4680BD3801002065
:10154C00400100203C01002080B400AF054B1B780B
:10155C001A46054B1B681344034A136000BFBD4673
:10156C0080BC7047400100207402002080B400AFA2
:10157C00024B1B681846BD4680BC704774020020A5
:10158C0080B485B000AF78607B6803F00703FB6024
:10159C000C4BDB68BB60BA684FF6FF031340BB60B3
:1015AC00FB681A02BB68134343F0BF6343F4003378
:1015BC00BB60044ABB68D36000BF1437BD4680BC17
:1015CC00704700BF00ED00E080B400AF044BDB6857
:1015DC001B0A03F007031846BD4680BC704700BFCA
:1015EC0000ED00E080B483B000AF0346FB7197F9C7
:1015FC000730002B0BDBFB7903F01F02064997F930
:10160C0007305B09012000FA02F241F8232000BFE9
:10161C000C37BD4680BC704700E100E080B483B05D
:10162C0000AF03463960FB7197F90730002B0ADBDA
:10163C003B68DAB20C4997F907301201D2B20B446D
:10164C0083F800230AE03B68DAB20849FB7903F01F
:10165C000F03043B1201D2B20B441A7600BF0C37B5
:10166C00BD4680BC704700BF00E100E000ED00E02B
:10167C0080B489B000AFF860B9607A60FB6803F0A1
:10168C000703FB61FB69C3F10703042B28BF042389
:10169C00BB61FB690433062B02D9FB69033B00E0F9
:1016AC0000237B614FF0FF32BB6902FA03F3DA438C
:1016BC00BB681A407B699A404FF0FF317B6901FA95
:1016CC0003F3D9437B680B40134318462437BD46BC
:1016DC0080BC704780B582B000AF78607B68013BFE
:1016EC00B3F1807F01D301230FE00A4A7B68013BF1
:1016FC0053600F214FF0FF30FFF790FF054B002296
:10170C009A60044B07221A60002318460837BD461E
:10171C0080BD00BF10E000E080B582B000AF786003
:10172C007868FFF72DFF00BF0837BD4680BD80B538
:10173C0086B000AF0346B9607A60FB7300237B610F
:10174C00FFF742FF78617A68B9687869FFF790FF14
:10175C00024697F90F3011461846FFF75FFF00BF9E
:10176C001837BD4680BD80B582B000AF0346FB7113
:10177C0097F907301846FFF735FF00BF0837BD460D
:10178C0080BD80B582B000AF78607868FFF7A2FFAB
:10179C00034618460837BD4680BD000080B48BB0A8
:1017AC0000AF7860396000237B6200233B6248E124
:1017BC0001227B6A02FA03F3FB613B681B68FA693E
:1017CC001340BB61BA69FB699A4240F037813B68B0
:1017DC005B68A34A93425ED0A14A934275D8A14A52
:1017EC00934258D09F4A93426FD89F4A934252D00B
:1017FC009D4A934269D89D4A93424CD09B4A93424E
:10180C0063D89B4A934246D0994A93425DD8122B97
:10181C002AD8122B59D801A252F823F0A318000889
:10182C007D1800088F180008D1180008D718000878
:10183C00D7180008D7180008D7180008D7180008C0
:10184C00D7180008D7180008D7180008D7180008B0
:10185C00D7180008D7180008D7180008D7180008A0
:10186C008518000899180008824A934213D02CE07E
:10187C003B68DB683B6229E03B68DB6804333B6216
:10188C0024E03B68DB6808333B621FE03B68DB68A5
:10189C000C333B621AE03B689B68002B02D104239B
:1018AC003B6213E03B689B68012B05D108233B622C
:1018BC007B68FA691A6109E008233B627B68FA6964
:1018CC005A6103E000233B6200E000BFBB69FF2BC1
:1018DC0001D87B6801E07B6804337B61BB69FF2B1B
:1018EC0002D87B6A9B0002E07B6A083B9B003B6151
:1018FC007B691A680F213B6901FA03F3DB431A4039
:10190C00396A3B6901FA03F31A437B691A603B6835
:10191C005B6803F08053002B00F09080564B9B6962
:10192C00554A43F001039361534B9B6903F0010348
:10193C00BB60BB68514A7B6A9B08023352F8233068
:10194C00FB607B6A03F003039B000F2202FA03F394
:10195C00DB43FA681340FB607B68494A93420DD025
:10196C007B68484A934207D07B68474A934201D12F
:10197C00022304E0032302E0012300E000237A6A3F
:10198C0002F0030292009340FA681343FB603B4958
:10199C007B6A9B080233FA6841F823203B685B683A
:1019AC0003F48013002B06D0384B9A683749BB6977
:1019BC0013438B6006E0354B9A68BB69DB433349B4
:1019CC0013408B603B685B6803F40013002B06D05C
:1019DC002E4BDA682D49BB691343CB6006E02B4BC9
:1019EC00DA68BB69DB4329491340CB603B685B6811
:1019FC0003F40033002B06D0244B5A682349BB69EF
:101A0C0013434B6006E0214B5A68BB69DB431F490B
:101A1C0013404B603B685B6803F48033002B06D0AB
:101A2C001A4B1A681949BB6913430B6006E0174B34
:101A3C001A68BB69DB43154913400B607B6A0133A1
:101A4C007B623B681A687B6A22FA03F3002B7FF4F3
:101A5C00AFAE00BF00BF2C37BD4680BC704700BF87
:101A6C000000321000003110000022100000211084
:101A7C000000121000001110001002400000014084
:101A8C0000080140000C014000100140000401401E
:101A9C0080B485B000AF78600B467B807B689A6819
:101AAC007B881340002B02D00123FB7301E0002341
:101ABC00FB73FB7B18461437BD4680BC704780B463
:101ACC0083B000AF78600B467B8013467B707B78CD
:101ADC00002B03D07A887B681A6103E07B881A0498
:101AEC007B681A6100BF0C37BD4680BC704780B460
:101AFC0085B000AF78600B467B807B68DB68FB6051
:101B0C007A88FB6813401A04FB68D9437B880B4026
:101B1C001A437B681A6100BF1437BD4680BC7047FE
:101B2C0080B586B000AF78607B68002B01D10123B3
:101B3C006CE27B681B6803F00103002B00F08780CC
:101B4C00924B5B6803F00C03042B0CD08F4B5B683F
:101B5C0003F00C03082B12D18C4B5B6803F480331D
:101B6C00B3F5803F0BD1894B1B6803F40033002B7A
:101B7C006CD07B685B68002B68D1012346E27B68E4
:101B8C005B68B3F5803F06D1804B1B687F4A43F4FA
:101B9C00803313602EE07B685B68002B0CD17B4B91
:101BAC001B687A4A23F480331360784B1B68774A9E
:101BBC0023F4802313601DE07B685B68B3F5A02FD2
:101BCC000CD1724B1B68714A43F4802313606F4B2A
:101BDC001B686E4A43F4803313600BE06B4B1B683D
:101BEC006A4A23F480331360684B1B68674A23F4FA
:101BFC00802313607B685B68002B13D0FFF7B6FC67
:101C0C00386108E0FFF7B2FC02463B69D31A642B3B
:101C1C0001D90323FAE15D4B1B6803F40033002B5D
:101C2C00F0D014E0FFF7A2FC386108E0FFF79EFC4F
:101C3C0002463B69D31A642B01D90323E6E1534BCB
:101C4C001B6803F40033002BF0D100E000BF7B686D
:101C5C001B6803F00203002B63D04C4B5B6803F052
:101C6C000C03002B0BD0494B5B6803F00C03082BC7
:101C7C001CD1464B5B6803F48033002B16D1434BCD
:101C8C001B6803F00203002B05D07B681B69012B3A
:101C9C0001D00123BAE13D4B1B6823F0F8027B68AD
:101CAC005B69DB00394913430B603AE07B681B69C5
:101CBC00002B20D0364B01221A60FFF757FC3861FD
:101CCC0008E0FFF753FC02463B69D31A022B01D9FB
:101CDC0003239BE12D4B1B6803F00203002BF0D078
:101CEC002A4B1B6823F0F8027B685B69DB002749F1
:101CFC0013430B6015E0264B00221A60FFF736FCED
:101D0C00386108E0FFF732FC02463B69D31A022B1C
:101D1C0001D903237AE11D4B1B6803F00203002B4E
:101D2C00F0D17B681B6803F00803002B3AD07B686A
:101D3C009B69002B19D0174B01221A60FFF716FC78
:101D4C00386108E0FFF712FC02463B69D31A022BFC
:101D5C0001D903235AE10D4B5B6A03F00203002BFC
:101D6C00F0D0012000F09AFA1CE00A4B00221A6015
:101D7C00FFF7FCFB38610FE0FFF7F8FB02463B690D
:101D8C00D31A022B08D9032340E100BF00100240F4
:101D9C0000004242800442429E4B5B6A03F0020305
:101DAC00002BE9D17B681B6803F00403002B00F0C7
:101DBC00A6800023FB75974BDB6903F08053002B47
:101DCC000DD1944BDB69934A43F08053D361914B13
:101DDC00DB6903F08053BB60BB680123FB758E4B42
:101DEC001B6803F48073002B18D18B4B1B688A4A39
:101DFC0043F480731360FFF7B9FB386108E0FFF719
:101E0C00B5FB02463B69D31A642B01D90323FDE0D1
:101E1C00814B1B6803F48073002BF0D07B68DB686C
:101E2C00012B06D17B4B1B6A7A4A43F001031362E8
:101E3C002DE07B68DB68002B0CD1764B1B6A754A56
:101E4C0023F001031362734B1B6A724A23F00403E1
:101E5C0013621CE07B68DB68052B0CD16D4B1B6A95
:101E6C006C4A43F0040313626A4B1B6A694A43F0E1
:101E7C00010313620BE0674B1B6A664A23F00103F4
:101E8C001362644B1B6A634A23F0040313627B687E
:101E9C00DB68002B15D0FFF769FB38610AE0FFF710
:101EAC0065FB02463B69D31A41F28832934201D951
:101EBC000323ABE0574B1B6A03F00203002BEED05D
:101ECC0014E0FFF753FB38610AE0FFF74FFB0246C3
:101EDC003B69D31A41F28832934201D9032395E02E
:101EEC004C4B1B6A03F00203002BEED1FB7D012B44
:101EFC0005D1484BDB69474A23F08053D3617B689B
:101F0C00DB69002B00F08180424B5B6803F00C0313
:101F1C00082B61D07B68DB69022B46D13F4B00223A
:101F2C001A60FFF723FB386108E0FFF71FFB02463E
:101F3C003B69D31A022B01D9032367E0354B1B688D
:101F4C0003F00073002BF0D17B681B6AB3F5803F64
:101F5C0008D1304B5B6823F400327B689B682D49B9
:101F6C0013434B602B4B5B6823F474127B68196A28
:101F7C007B685B6A0B43274913434B60274B012259
:101F8C001A60FFF7F3FA386108E0FFF7EFFA024640
:101F9C003B69D31A022B01D9032337E01D4B1B6875
:101FAC0003F00073002BF0D02FE01C4B00221A60C2
:101FBC00FFF7DCFA386108E0FFF7D8FA02463B6914
:101FCC00D31A022B01D9032320E0124B1B6803F018
:101FDC000073002BF0D118E07B68DB69012B01D179
:101FEC00012313E00B4B5B68FB60FB6803F480324E
:101FFC007B681B6A9A4206D1FB6803F470127B68FB
:10200C005B6A9A4201D0012300E00023184618377E
:10201C00BD4680BD0010024000700040600042428E
:10202C0080B584B000AF786039607B68002B01D13B
:10203C000123D0E06A4B1B6803F007033A689A420D
:10204C0010D9674B1B6823F0070265493B681343A3
:10205C000B60634B1B6803F007033A689A4201D08C
:10206C000123B8E07B681B6803F00203002B20D02F
:10207C007B681B6803F00403002B05D0594B5B688D
:10208C00584A43F4E06353607B681B6803F0080311
:10209C00002B05D0534B5B68524A43F4605353609A
:1020AC00504B5B6823F0F0027B689B684D491343EF
:1020BC004B607B681B6803F00103002B40D07B68EE
:1020CC005B68012B07D1474B1B6803F40033002BD3
:1020DC0015D101237FE07B685B68022B07D1414B54
:1020EC001B6803F00073002B09D1012373E03D4BF7
:1020FC001B6803F00203002B01D101236BE0394B69
:10210C005B6823F003027B685B68364913434B60C2
:10211C00FFF72CFAF8600AE0FFF728FA0246FB6892
:10212C00D31A41F28832934201D9032353E02D4B49
:10213C005B6803F00C027B685B689B009A42EBD1F6
:10214C00274B1B6803F007033A689A4210D2244BC2
:10215C001B6823F0070222493B6813430B60204B9A
:10216C001B6803F007033A689A4201D0012332E05E
:10217C007B681B6803F00403002B08D0194B5B68C9
:10218C0023F4E0627B68DB68164913434B607B6881
:10219C001B6803F00803002B09D0124B5B6823F477
:1021AC0060527B681B69DB000E4913434B6000F0E7
:1021BC0021F802460B4B5B681B0903F00F030A491D
:1021CC00CB5C22FA03F3094A1360094B1B681846CF
:1021DC00FFF78AF9002318461037BD4680BD00BFB3
:1021EC000020024000100240C02C000838010020E2
:1021FC003C01002080B487B000AF0023FB600023BB
:10220C00BB6000237B6100237B6000233B611E4B82
:10221C005B68FB60FB6803F00C03042B02D0082BFB
:10222C0003D027E0194B3B6127E0FB689B0C03F0C4
:10223C000F03174AD35C7B60FB6803F48033002BDD
:10224C0010D0114B5B685B0C03F00103114AD35C9B
:10225C00BB607B680D4A02FB03F2BB68B2FBF3F375
:10226C007B6104E07B680C4A02FB03F37B617B69B6
:10227C003B6102E0054B3B6100BF3B6918461C37D4
:10228C00BD4680BC704700BF0010024000127A00AF
:10229C00D02C0008E02C000800093D0080B485B06B
:1022AC0000AF78600A4B1B680A4AA2FB03235B0A47
:1022BC007A6802FB03F3FB6000BFFB685A1EFA60EE
:1022CC00002BF9D100BF00BF1437BD4680BC70474E
:1022DC0038010020D34D621080B582B000AF786019
:1022EC007B68002B01D1012341E07B6893F83D30E2
:1022FC00DBB2002B06D17B68002283F83C20786887
:10230C00FFF724F87B68022283F83D207B681A686B
:10231C007B6804331946104600F056FA7B6801229C
:10232C0083F846207B68012283F83E207B680122DB
:10233C0083F83F207B68012283F840207B680122D0
:10234C0083F841207B68012283F842207B680122BC
:10235C0083F843207B68012283F844207B680122A8
:10236C0083F845207B68012283F83D200023184622
:10237C000837BD4680BD000080B485B000AF7860E2
:10238C007B6893F83D30DBB2012B01D0012335E0A3
:10239C007B68022283F83D207B681B68DA687B68C7
:1023AC001B6842F00102DA607B681B68164A934294
:1023BC0009D07B681B68B3F1804F04D07B681B6825
:1023CC00124A934211D17B681B689B6803F0070388
:1023DC00FB60FB68062B10D07B681B681A687B6857
:1023EC001B6842F001021A6007E07B681B681A68E0
:1023FC007B681B6842F001021A60002318461437F0
:10240C00BD4680BC704700BF002C0140000400405A
:10241C0080B584B000AF78607B681B68DB68FB60BC
:10242C007B681B681B69BB60BB6803F00203002B55
:10243C0020D0FB6803F00203002B1BD07B681B68C9
:10244C006FF002021A617B6801221A777B681B68A5
:10245C009B6903F00303002B03D0786800F098F914
:10246C0005E0786800F08BF9786800F09AF97B68E1
:10247C0000221A77BB6803F00403002B20D0FB6802
:10248C0003F00403002B1BD07B681B686FF0040265
:10249C001A617B6802221A777B681B689B6903F4BC
:1024AC004073002B03D0786800F072F905E078686F
:1024BC0000F065F9786800F074F97B6800221A77EF
:1024CC00BB6803F00803002B20D0FB6803F0080363
:1024DC00002B1BD07B681B686FF008021A617B68AD
:1024EC0004221A777B681B68DB6903F00303002B5B
:1024FC0003D0786800F04CF905E0786800F03FF9FB
:10250C00786800F04EF97B6800221A77BB6803F0FC
:10251C001003002B20D0FB6803F01003002B1BD002
:10252C007B681B686FF010021A617B6808221A77AF
:10253C007B681B68DB6903F44073002B03D078685D
:10254C0000F026F905E0786800F019F9786800F0D9
:10255C0028F97B6800221A77BB6803F00103002B73
:10256C000CD0FB6803F00103002B07D07B681B68C1
:10257C006FF001021A617868FEF754FDBB6803F036
:10258C008003002B0CD0FB6803F08003002B07D0DA
:10259C007B681B686FF080021A61786800F06FFA34
:1025AC00BB6803F04003002B0CD0FB6803F0400326
:1025BC00002B07D07B681B686FF040021A617868AB
:1025CC0000F0F8F8BB6803F02003002B0CD0FB687C
:1025DC0003F02003002B07D07B681B686FF02002F0
:1025EC001A61786800F042FA00BF1037BD4680BD12
:1025FC0080B584B000AF786039600023FB737B68D2
:10260C0093F83C30012B01D10223B4E07B6801220A
:10261C0083F83C207B68022283F83D207B681B6892
:10262C009B68BB60BB6823F07703BB60BB6823F47B
:10263C007F43BB607B681B68BA689A603B681B6809
:10264C00B3F5005F3ED0B3F5005F00F28780B3F5C1
:10265C00805F00F08680B3F5805F7FD8702B1AD036
:10266C00702B7BD8602B50D0602B77D8502B3CD064
:10267C00502B73D8402B58D0402B6FD8302B64D0B4
:10268C00302B6BD8202B60D0202B67D8002B5CD044
:10269C00102B5AD062E07B6818683B6899683B68DD
:1026AC005A683B68DB6800F06AF97B681B689B68BA
:1026BC00BB60BB6843F07703BB607B681B68BA6880
:1026CC009A604FE07B6818683B6899683B685A6869
:1026DC003B68DB6800F053F97B681B689A687B6881
:1026EC001B6842F480429A603CE07B6818683B6847
:1026FC0059683B68DB681A4600F0CAF87B681B68AF
:10270C005021184600F021F92CE07B6818683B68D2
:10271C0059683B68DB681A4600F0E8F87B681B6870
:10272C006021184600F011F91CE07B6818683B68C2
:10273C0059683B68DB681A4600F0AAF87B681B688E
:10274C004021184600F001F90CE07B681A683B68E0
:10275C001B681946104600F0F8F803E00123FB73E0
:10276C0000E000BF7B68012283F83D207B680022DB
:10277C0083F83C20FB7B18461037BD4680BD80B4E7
:10278C0083B000AF786000BF0C37BD4680BC70478B
:10279C0080B483B000AF786000BF0C37BD4680BCFE
:1027AC00704780B483B000AF786000BF0C37BD4673
:1027BC0080BC704780B483B000AF786000BF0C372A
:1027CC00BD4680BC7047000080B485B000AF786017
:1027DC0039607B681B68FB607B682B4A934207D08F
:1027EC007B68B3F1804F03D07B68284A934208D1B1
:1027FC00FB6823F07003FB603B685B68FA6813436B
:10280C00FB607B68204A934207D07B68B3F1804F12
:10281C0003D07B681D4A934208D1FB6823F44073B4
:10282C00FB603B68DB68FA681343FB60FB6823F0D2
:10283C0080023B685B691343FB607B68FA681A6033
:10284C003B689A687B68DA623B681A687B689A62B4
:10285C007B680D4A934203D13B681A697B681A6303
:10286C007B6801225A617B681B6903F00103002B12
:10287C0005D07B681B6923F001027B681A6100BFDD
:10288C001437BD4680BC7047002C0140000400404A
:10289C0080B487B000AFF860B9607A60FB681B6ADF
:1028AC007B61FB681B6A23F00102FB681A62FB6800
:1028BC009B693B613B6923F0F0033B617B681B0127
:1028CC003A6913433B617B6923F00A037B617A69A4
:1028DC00BB6813437B61FB683A699A61FB687A6950
:1028EC001A6200BF1C37BD4680BC704780B487B0ED
:1028FC0000AFF860B9607A60FB681B6A7B61FB68AB
:10290C001B6A23F01002FB681A62FB689B693B612F
:10291C003B6923F470433B617B681B033A691343A7
:10292C003B617B6923F0A0037B61BB681B017A6967
:10293C0013437B61FB683A699A61FB687A691A6296
:10294C0000BF1C37BD4680BC704780B485B000AF5B
:10295C00786039607B689B68FB60FB6823F07003D0
:10296C00FB603A68FB68134343F00703FB607B682A
:10297C00FA689A6000BF1437BD4680BC704780B4BB
:10298C0087B000AFF860B9607A603B60FB689B6809
:10299C007B617B6923F47F437B613B681A027B6814
:1029AC001A43BB6813437A6913437B61FB687A69EA
:1029BC009A6000BF1C37BD4680BC704780B485B0A0
:1029CC0000AF786039607B6893F83C30012B01D103
:1029DC00022341E07B68012283F83C207B680222C1
:1029EC0083F83D207B681B685B68FB607B681B6819
:1029FC009B68BB60FB6823F07003FB603B681B6843
:102A0C00FA681343FB607B681B68FA685A607B6842
:102A1C001B68144A934209D07B681B68B3F1804F42
:102A2C0004D07B681B68104A93420CD1BB6823F01E
:102A3C008003BB603B685B68BA681343BB607B6810
:102A4C001B68BA689A607B68012283F83D207B681A
:102A5C00002283F83C20002318461437BD4680BC66
:102A6C00704700BF002C01400004004080B483B0CC
:102A7C0000AF786000BF0C37BD4680BC704780B497
:102A8C0083B000AF786000BF0C37BD4680BC704788
:102A9C00014B1868704700BF4401002070B5002638
:102AAC000C4D0D4C641BA410A64209D100F0F6F895
:102ABC0000260A4D0A4C641BA410A64205D170BD19
:102ACC0055F8043B98470136EEE755F8043B984718
:102ADC000136F2E7E42C0008E42C0008E42C000892
:102AEC00E82C0008024B0146186800F05FB800BFE4
:102AFC0044010020024B0146186800F00BB800BFDF
:102B0C004401002003460244934200D1704703F86D
:102B1C00011BF9E738B50546002943D051F8043CB0
:102B2C000C1F002BB8BFE41800F0AAF81E4A13685B
:102B3C00104633B9636014602846BDE8384000F095
:102B4C00A5B8A3420AD921686218934201BF1A683A
:102B5C005B685218226063600460EDE71A465B689C
:102B6C000BB1A342FAD911685018A0420BD12068BE
:102B7C000144501883421160DED118685B6801442F
:102B8C0011605360D8E702D90C232B60D4E720687E
:102B9C0021188B4201BF19685B68091821606360BA
:102BAC005460C9E738BD00BF24020020F8B5CD1C25
:102BBC0025F0030508350C2D38BF0C25002D0646D5
:102BCC0001DBA94203D90C2333600020F8BD00F0CF
:102BDC0057F821490A6814469CB9204F3B6823B921
:102BEC002146304600F03CF838602946304600F06B
:102BFC0037F8431C23D10C233046336000F046F8E1
:102C0C00E3E723685B1B17D40B2B03D923601C440D
:102C1C00256004E06368A2420CBF0B605360304631
:102C2C0000F034F804F10B00231D20F00700C21A49
:102C3C00CCD01B1AA350C9E722466468CCE7C41C4D
:102C4C0024F00304A042E3D0211A304600F008F827
:102C5C000130DDD1CFE700BF240200202802002084
:102C6C0038B50023054D044608462B60FEF7C4FB1F
:102C7C00431C02D12B6803B1236038BD78020020BD
:102C8C00014800F009B800BF80020020014800F0A4
:102C9C0004B800BF8002002070477047F8B500BF31
:102CAC00F8BC08BC9E467047F8B500BFF8BC08BC21
:042CBC009E46704779
:102CC00000000000000000000102030406070809DC
:102CD00002030405060708090A0B0C0D0E0F10105D
:042CE00001020000ED
:042CE40031010008B2
:042CE8000D010008D2
:102CEC0000000000000000000000000000000000D8
:102CFC0000000000000000000100000001000000C6
:102D0C0000000000000000000100000001000000B5
:102D1C0001000000010000000000000000000000A5
:102D2C000100000000000000000000000100000095
:102D3C000000000000000000000000000000000087
:102D4C000000000001000000010000000000000075
:102D5C000100000000000000000000000100000065
:102D6C000100000000000000000000000000000056
:102D7C000100000000000000000000000100000045
:102D8C000000000000000000000000000100000036
:102D9C000000000000000000000000000000000027
:102DAC000000000000000000000000000000000017
:102DBC000100000001000000010000000100000003
:102DCC0000000000000000000000000000000000F7
:102DDC0000000000000000000000000000000000E7
:102DEC0000000000000000000000000001000000D6
:102DFC0000000000000000000500000002000000C0
:102E0C0003000000FFFFFFFF1E0000000500000094
:102E1C00020000000300000000127A001000000005
:102E2C00010000004801002000000000000000002C
:102E3C000000000000000000000000000000000086
:102E4C000000000000000000000000000000000076
:102E5C000000000000000000000000000000000066
:102E6C000000000000000000000000000000000056
:102E7C000000000000000000000000000000000046
:082E8C0000000000000000003E
:040000050800147D5E
:00000001FF
