:020000040800F2
:1000000000280020C11700085117000857170008E2
:100010005D1700086317000869170008000000005A
:100020000000000000000000000000006F17000842
:100030007B170008000000008717000893170008CE
:10004000091800080918000809180008091800080C
:1000500009180008091800080918000809180008FC
:1000600009180008091800080918000809180008EC
:1000700009180008091800080918000809180008DC
:1000800009180008091800080918000809180008CC
:1000900009180008091800080918000809180008BC
:1000A00009180008091800080918000809180008AC
:1000B000A11700080918000800000000091800082E
:1000C00009180008000000000000000009180008DE
:1000D00000000000091800080918000800000000CE
:1000E0000918000809180008091800080000000095
:1000F0000000000000000000000000000000000000
:0C01000000000000000000005FF808F1A3
:10010C0010B5054C237833B9044B13B10448AFF345
:10011C0000800123237010BD44010020000000006A
:10012C00382E000808B5034B1BB103490348AFF345
:10013C00008008BD0000000048010020382E000897
:10014C0080B500AF01221021094801F05AFE0122AE
:10015C002021074801F055FE01224021044801F0FE
:10016C0050FE01228021024801F04BFE00BF80BDF1
:10017C00000C014080B582B000AF78607B68002B2A
:10018C0071DB7B68092B6EDC39497A681346DB001E
:10019C009B1A9B000B441B68DBB21A468021354826
:1001AC0001F02FFE32497A681346DB009B1A9B0044
:1001BC000B4404331B68DBB21A464FF480712D4894
:1001CC0001F01FFE2A497A681346DB009B1A9B003C
:1001DC000B4408331B68DBB21A464FF400712548F8
:1001EC0001F00FFE22497A681346DB009B1A9B0034
:1001FC000B440C331B68DBB21A464FF480611D486C
:10020C0001F0FFFD1A497A681346DB009B1A9B002C
:10021C000B4410331B68DBB21A464FF400611548CF
:10022C0001F0EFFD12497A681346DB009B1A9B0024
:10023C000B4414331B68DBB21A464FF480510D4843
:10024C0001F0DFFD0A497A681346DB009B1A9B001C
:10025C000B4418331B68DBB21A464FF400510548A7
:10026C0001F0CFFD00E000BF0837BD4680BD00BFE8
:10027C00000000200008014080B582B000AF78601B
:10028C007B68002B72DB7B68092B6FDC39497A6841
:10029C001346DB009B1A9B000B441B68DBB21A460F
:1002AC004FF40071344801F0ACFD32497A681346C2
:1002BC00DB009B1A9B000B4404331B68DBB21A4611
:1002CC004FF480612C4801F09CFD2A497A68134652
:1002DC00DB009B1A9B000B4408331B68DBB21A46ED
:1002EC004FF40061244801F08CFD22497A681346D2
:1002FC00DB009B1A9B000B440C331B68DBB21A46C9
:10030C004FF480511C4801F07CFD1A497A68134661
:10031C00DB009B1A9B000B4410331B68DBB21A46A4
:10032C004FF40051144801F06CFD12497A681346E1
:10033C00DB009B1A9B000B4414331B68DBB21A4680
:10034C004FF480410C4801F05CFD0A497A68134671
:10035C00DB009B1A9B000B4418331B68DBB21A465C
:10036C004FF40041044801F04CFD00E000BF083799
:10037C00BD4680BD00000020000C014080B483B05D
:10038C0000AF78607B680D4A82FB03129210DB177A
:10039C00D31A0B4A13607968084B83FB01239A101C
:1003AC00CB17D21A13469B0013445B00CA1A044B9A
:1003BC005A6000BF0C37BD4680BC704767666666E6
:1003CC008C01002080B483B000AF78607B680D4A4C
:1003DC0082FB03129210DB17D31A0B4A93607968D5
:1003EC00084B83FB01239A10CB17D21A13469B00A0
:1003FC0013445B00CA1A044BDA6000BF0C37BD46CD
:10040C0080BC7047676666668C01002080B500AFC3
:10041C00FFF796FE254B1B68032B37D801A252F829
:10042C0023F000BF41040008570400086D040008C5
:10043C00830400081E4B1B681846FFF79BFE002226
:10044C0010211C4801F0DDFC21E0194B5B681846BB
:10045C00FFF790FE00222021164801F0D2FC16E096
:10046C00134B9B681846FFF707FF002240211148E9
:10047C0001F0C7FC0BE00E4BDB681846FFF7FCFEE7
:10048C00002280210B4801F0BCFC00E000BF074BB0
:10049C001B6801335A4203F0030302F0030258BFF6
:1004AC005342024A136000BF80BD00BF60010020B0
:1004BC008C010020000C014080B500AF01210248E6
:1004CC0001F0B7FC00BF80BD0008014080B500AF53
:1004DC000221044801F0ADFC1021024801F0A9FCF6
:1004EC0000BF80BD0008014080B500AF0421044866
:1004FC0001F09FFC2021024801F09BFC00BF80BD55
:10050C000008014080B500AF0821044801F091FCBF
:10051C004021024801F08DFC00BF80BD0008014065
:10052C0080B582B000AF786039607B68DBB21A4668
:10053C000221074801F065FC3B68DBB21A4610212A
:10054C00034801F05EFC00BF0837BD4680BD00BF0C
:10055C000008014080B582B000AF786039607B68DC
:10056C00DBB21A460421074801F04BFC3B68DBB2B6
:10057C001A462021034801F044FC00BF0837BD4651
:10058C0080BD00BF0008014080B582B000AF78602C
:10059C0039607B68DBB21A460821074801F031FC50
:1005AC003B68DBB21A464021034801F02AFC00BF2D
:1005BC000837BD4680BD00BF0008014080B500AFC4
:1005CC0001210120FFF7ACFF01210120FFF7C2FF41
:1005DC0001210120FFF7D8FF00BF80BD80B500AF1F
:1005EC008B4B1B681E2B40F01081002000F0D0FBC1
:1005FC000346002B17D0874B1B68002B13D1854B60
:10060C0001221A60FFF7DAFFFFF79AFD804B1F22D9
:10061C001A60814B0A221A600020FFF7AFFE0020FF
:10062C00FFF7D0FEF2E0002000F0B2FB0346002BF7
:10063C0002D1784B00221A60784B1B68002B00F318
:10064C00D280764B0A221A60734B1B68042B00F283
:10065C00C68001A252F823F079060008AF06000804
:10066C00010700084D0700089F0700086C4B1B682A
:10067C006C4A13606C4B1B686C4A13606C4B1B68A8
:10068C006C4A1360644B01221A606A4B1B686A4AFD
:10069C001360684B1A68654B1B681344674A1360F8
:1006AC00A6E000210120FFF73BFF01210120FFF70D
:1006BC0051FF01210020FFF767FF5E4B1B685E4A6C
:1006CC0013605C4B1A68584B1B6813445B4A1360ED
:1006DC00584B1B68002B07DC4F4B02221A60524B05
:1006EC001B68524A136083E0524B1B68013B514A12
:1006FC0013607DE000210120FFF712FF0121002093
:10070C00FFF728FF01210120FFF73EFF474B1B6835
:10071C00494A1360454B1B68484A1360434B1B689E
:10072C00002B07DC3C4B03221A60414B1B68414AEF
:10073C0013605DE03D4B1B68013B3C4A136057E086
:10074C0001210020FFF7ECFE01210120FFF702FF41
:10075C0000210120FFF718FF364B1A68324B1B683B
:10076C001344354A1360334B1B68344A1360314BC6
:10077C001B68002B07DC284B04221A602A4B1B68D1
:10078C002A4A136034E02B4B1B68013B294A136047
:10079C002EE001210020FFF7C3FE00210120FFF70E
:1007AC00D9FE01210120FFF7EFFE204B1B68224AE6
:1007BC0013601E4B1B68214A13601C4B1B68002BDB
:1007CC0007DC154B01221A60194B1B68194A136080
:1007DC000EE0164B1B68013B144A136008E00E4BED
:1007EC0000221A6004E00D4B1B68013B0B4A13609E
:1007FC00114B1B681846FFF7C1FD104B1B681846C0
:10080C00FFF7E0FDFFF702FE00E000BF80BD00BF78
:10081C0028010020800100207C0100206C010020B8
:10082C002C01002018010020300100201C010020A8
:10083C003401002020010020640100206801002008
:10084C0080B500AF774B1B68202B04D0764B4FF054
:10085C00FF321A60E4E0002000F09AFA0346002B05
:10086C0024D0724B1B68002B20D1704B01221A60D4
:10087C00FFF7A4FEFFF764FC6D4B1B686D4A136019
:10088C006D4B1B686D4A13606D4B1B686D4A136092
:10089C00644B1E221A606C4B03221A60624B4FF0A1
:1008AC00FF321A60614B01221A60B9E0002000F09F
:1008BC006FFA0346002B02D15C4B00221A60012018
:1008CC0000F066FA0346002B13D0604B1B68002B1C
:1008DC000FD15E4B01221A605D4B1B6801335C4AE1
:1008EC0013605B4B1B68632B0CDD594B00221A60A9
:1008FC0008E0012000F04CFA0346002B02D1534BC8
:10090C0000221A60022000F043FA0346002B36D076
:10091C00504B1B68002B32D14E4B01221A604A4BB4
:10092C001B68142B0BD14A4B1B68414A1360424B7A
:10093C001B68474A1360444B15221A6029E0424B4E
:10094C001B68152B0BD1424B1B683B4A13603C4B6D
:10095C001B683F4A13603C4B16221A6019E03A4B55
:10096C001B68162B15D13A4B1B68354A1360304B5C
:10097C001B68374A1360344B14221A6009E00220BA
:10098C0000F006FA0346002B04D0324B00221A600A
:10099C0000E000BF0220FFF7F1FC2D4B1B6818464E
:1009AC00FFF710FDFFF732FD2B4B1B68002B32DCE1
:1009BC00294B05221A60244B1B68162B1CD0162BB6
:1009CC0025DC142B02D0152B0BD020E0FFF77EFD7D
:1009DC0001210120FFF7BEFD01210120FFF7D4FD0D
:1009EC001EE0FFF781FD01210120FFF799FD012198
:1009FC000120FFF7C9FD13E0FFF784FD0121012061
:100A0C00FFF78EFD01210120FFF7A4FD08E00E4B3E
:100A1C0014221A6004E0104B1B68013B0E4A136051
:100A2C0080BD00BF2801002024010020800100208F
:100A3C002C01002018010020300100201C01002096
:100A4C0034010020200100207C01002084010020C2
:100A5C0070010020880100207401002080B500AFD7
:100A6C006B4B1B681F2B40F0D180002000F090F9DD
:100A7C000346002B18D0674B1B68002B14D1654B19
:100A8C0001221A60FFF79AFDFFF75AFB604B2022F8
:100A9C001A60614B14221A60604B14221A60604B6E
:100AAC001B68604A1360B2E0002000F071F9034645
:100ABC00002B02D1574B00221A60012000F068F97C
:100ACC000346002B2CD0584B1B68002B28D1564BBF
:100ADC0001221A60504B1B680C2B0ED1FFF730FB18
:100AEC00524B1A6813469B0013445B001A46504B3A
:100AFC001A60494B0D221A601CE0474B1B680A2BED
:100B0C0018D1FFF71DFB494B1A6813469B00134481
:100B1C005B001A46464B1A603F4B0B221A6009E0E9
:100B2C00012000F035F90346002B04D13E4B002286
:100B3C001A6000E000BF384B1B680D2B0CD13C4BEE
:100B4C001B68002B03DC344B0A221A6004E0384B80
:100B5C001B68013B364A13602F4B1B680B2B0CD1C7
:100B6C00334B1B68002B03DC2B4B0C221A6004E06C
:100B7C002F4B1B68013B2E4A1360274B1B680A3B0B
:100B8C00032B3FD801A252F823F000BFF70B00084B
:100B9C00DD0B0008C30B0008A90B00080121002085
:100BAC00FFF7BEFC00210120FFF7D4FC012101203E
:100BBC00FFF7EAFC2BE001210020FFF7B1FC01213B
:100BCC000120FFF7C7FC00210120FFF7DDFC1EE030
:100BDC0000210120FFF7A4FC01210020FFF7BAFC43
:100BEC0001210120FFF7D0FC11E000210120FFF7CB
:100BFC0097FC01210120FFF7ADFC01210020FFF73C
:100C0C00C3FC04E0044B0A221A6000E000BF80BD64
:100C1C0028010020800100207C01002024010020FC
:100C2C002C010020700100208401002030010020E4
:100C3C007801002080B582B000AF00237B6090E08B
:100C4C004C4A7B68134419784B4A7B6813440A4618
:100C5C001A707B68032B3CD801A252F823F000BF1A
:100C6C007D0C0008950C0008AD0C0008C50C0008A4
:100C7C000121424801F0AEF8034619463D4A7B6813
:100C8C0013440A461A7025E002213C4801F0A2F8F0
:100C9C0003461946374A7B6813440A461A7019E012
:100CAC000421364801F096F803461946314A7B6810
:100CBC0013440A461A700DE04FF48041304801F09D
:100CCC0089F8034619462B4A7B6813440A461A7066
:100CDC0000E000BF274A7B6813441A7826497B68DA
:100CEC000B441B789A4239D1224A7B6813441978F9
:100CFC00244A7B6813440A461A70224A7B681344C0
:100D0C001B78002B20D1204A7B6813441B78002BC6
:100D1C0009D11E4A7B6832F81330013B99B21B4A49
:100D2C007B6822F81310194A7B6832F81330002BB9
:100D3C0014D1154A7B68134401221A70134A7B683C
:100D4C00642122F8131009E0104A7B68642122F810
:100D5C0013100D4A7B68134400221A707B68013310
:100D6C007B607B68032B7FF76BAF00BF00BF08373E
:100D7C00BD4680BDA0010020A4010020000C014054
:100D8C00000801409C010020A8010020AC010020BB
:100D9C0080B483B000AF0346FB71FB79032B01D900
:100DAC00002307E0FB79064AD35C002B0CBF012320
:100DBC000023DBB218460C37BD4680BC704700BF21
:100DCC009C01002080B500AF00F01AFD00F02CF85B
:100DDC0000F0B2F800F064F80E4801F06FFC00F07F
:100DEC002DF9642200210C4800F072F964220021D4
:100DFC000A4800F06DF964220021094800F068F9F6
:100E0C004FF47A720021074800F062F900F00AFBF7
:100E1C00FCE700BF48030020E9050008690A000848
:100E2C004D080008C504000880B590B000AF07F16C
:100E3C00180328220021184601F0F0FF3B1D002268
:100E4C001A605A609A60DA601A610223BB6101234E
:100E5C00BB621023FB6200237B6307F11803184667
:100E6C0001F000F80346002B01D000F0E1F80F234D
:100E7C007B600023BB600023FB6000233B610023ED
:100E8C007B613B1D0021184601F06CFA0346002BD8
:100E9C0001D000F0CDF800BF4037BD4680BD00004A
:100EAC0080B586B000AF07F1080300221A605A60C3
:100EBC009A60DA603B4600221A605A601D4B4FF074
:100ECC0080421A601B4B41F63F725A60194B00224C
:100EDC009A60184B0922DA60164B00221A61154BE6
:100EEC0000229A61134801F099FB0346002B01D0B4
:100EFC0000F09EF84FF48053BB6007F108031946CD
:100F0C000C4801F017FD0346002B01D000F090F8BF
:100F1C0000233B6000237B603B461946054801F0EB
:100F2C00EFFE0346002B01D000F082F800BF18370B
:100F3C00BD4680BD4803002080B586B000AF07F1E8
:100F4C00080300221A605A609A60DA602F4B9B6982
:100F5C002E4A43F0040393612C4B9B6903F004036A
:100F6C007B607B68294B9B69284A43F0080393619B
:100F7C00264B9B6903F008033B603B68002243F659
:100F8C00FF71234800F03DFF00224FF6F06121482D
:100F9C0000F037FF43F6FF73BB600123FB600023B7
:100FAC003B6102237B6107F108031946184800F0E6
:100FBC0097FD0723BB600023FB6001233B6107F116
:100FCC0008031946134800F08BFD4FF6F063BB6025
:100FDC000123FB6000233B6102237B6107F10803C3
:100FEC0019460C4800F07CFD4FF48043BB60002395
:100FFC00FB6001233B6107F108031946044800F02C
:10100C006FFD00BF1837BD4680BD00BF0010024009
:10101C0000080140000C014080B582B000AF786040
:10102C0000F0E0F9FFF706FE00BF0837BD4680BDB3
:10103C0080B400AF72B600BFFEE7000080B483B08E
:10104C0000AF00237B6033E01F497A6813469B0096
:10105C0013449B000B4400221A601B497A68134608
:10106C009B0013449B000B44043300221A60164966
:10107C007A6813469B0013449B000B4408330022F0
:10108C001A6011497A6813469B0013449B000B4469
:10109C000C3300221A700C497A6813469B001344D7
:1010AC009B000B44103300221A607B6801337B6079
:1010BC007B68132BC8DD054B00221A6000BF0C3770
:1010CC00BD4680BC704700BFB8010020B4010020B1
:1010DC0090B58BB000AFF860B9607A60BB68BF4A5E
:1010EC00A2FB0323DB08BB617B68BC4AA2FB032386
:1010FC00DB087B61002387F8273000233B62002349
:10110C003B61002387F8273055E197F82720B44935
:10111C0013469B0013449B000B4404331B683A6A30
:10112C0013443B623A6ABB699A4240F2D78097F803
:10113C002720AB4913469B0013449B000B440433FC
:10114C001A683B6AD31ABA6913443B6197F8272093
:10115C00396ABB69C91AA24813469B0013449B0009
:10116C000344043319601323FB7757E0FB7F5A1EAB
:10117C009B4913469B0013449B000B441B68002B9C
:10118C0049D0FB7F591EFA7F95480B469B000B44B8
:10119C009B0003441968924813469B0013449B0020
:1011AC0003441960FB7F591EFA7F8D480B469B0048
:1011BC000B449B00034408331968894813469B0071
:1011CC0013449B00034408331960FB7F591EFA7FBC
:1011DC0083480B469B000B449B0003440433196863
:1011EC007F4813469B0013449B000344043319604F
:1011FC00FB7F591EFA7F7A480B469B000B449B00E1
:10120C00034410331968764813469B0013449B0023
:10121C00034410331960FB7F013BFB77FA7F97F88F
:10122C0027309A42A2D897F827206D4913469B0085
:10123C0013449B000B44FA681A6097F827206849FE
:10124C0013469B0013449B000B4404333A691A6009
:10125C0097F82720624913469B0013449B000B44CC
:10126C0008337A691A6097F827205D4913469B006A
:10127C0013449B000B4404331B68002B0BD197F8D1
:10128C002720574913469B0013449B000B440C33F7
:10129C0001221A700AE097F82720514913469B0047
:1012AC0013449B000B440C3300221A7097F8274010
:1012BC0000F0DAF902464A4923469B0023449B007E
:1012CC000B4410331A6097F82720454913469B00AE
:1012DC0013449B000B4410331B687BE097F82720CA
:1012EC003F4913469B0013449B000B441B68002B87
:1012FC005CD197F827203A4913469B0013449B0076
:10130C000B44FA681A6097F82720B9693B6AC91A26
:10131C00334813469B0013449B0003440433196069
:10132C0097F827202E4913469B0013449B000B442F
:10133C0008337A691A6097F82720294913469B00CD
:10134C0013449B000B4404331B68002B0BD197F800
:10135C002720234913469B0013449B000B440C335A
:10136C0001221A700AE097F827201D4913469B00AA
:10137C0013449B000B440C3300221A7097F827403F
:10138C0000F072F90246164923469B0023449B0049
:10139C000B4410331A6097F82720114913469B0011
:1013AC0013449B000B4410331B6813E097F8273051
:1013BC00013387F8273097F82730132B7FF6A5AE2B
:1013CC0097F82720064913469B0013449B000B44B7
:1013DC0010331B6818462C37BD4690BDCDCCCCCCF9
:1013EC00B801002080B400AF0D4B1B68002B13D04C
:1013FC000B4B1B7B002B0FD1094B5B68002B0BD0CD
:10140C00074B5B68013B064A5360054B5B68002B3E
:10141C0002D1034B01221A7300BFBD4680BC70473A
:10142C00B8010020B0B586B000AF154B1B7B002B6C
:10143C0022D0134B1B689847114B00221A73104B88
:10144C003C1D1D460FCD0FC42B6823607B691846CD
:10145C0000F018F8FB68002B0ED07868FA68134679
:10146C009B0013445B001946FA6813469B00134417
:10147C005B001A46FFF72CFE00BF1837BD46B0BD07
:10148C00B801002080B485B000AF786000237B7376
:10149C007B68002B00F0DF800023FB73D7E0FA7B26
:1014AC00704913469B0013449B000B4410331B687C
:1014BC007A689A4240F0C88001237B73FB7B122B25
:1014CC0028D8FB7B5A1C674913469B0013449B008E
:1014DC000B441B68002B1DD0FB7B5A1C6149134627
:1014EC009B0013449B000B4404331968FA7B5D4842
:1014FC0013469B0013449B00034404331B68FA7B84
:10150C0001321944574813469B0013449B00034473
:10151C0004331960FB7BBB7360E0BB7B591CBA7B4B
:10152C0050480B469B000B449B00034419684D48E4
:10153C0013469B0013449B0003441960BB7B591C4E
:10154C00BA7B48480B469B000B449B000344083372
:10155C001968444813469B0013449B00034408330A
:10156C001960BB7B591CBA7B3E480B469B000B4455
:10157C009B000344043319683A4813469B001344F8
:10158C009B00034404331960BB7B591CBA7B354860
:10159C000B469B000B449B0003440C3318783149D9
:1015AC0013469B0013449B000B440C3302461A70E9
:1015BC00BB7B591CBA7B2B480B469B000B449B00F6
:1015CC00034410331968274813469B0013449B00AF
:1015DC00034410331960BB7B0133BB73BB7B122BF1
:1015EC009BD9BA7B1F4913469B0013449B000B44A9
:1015FC0000221A60BA7B1B4913469B0013449B00C4
:10160C000B44083300221A60BA7B164913469B0020
:10161C0013449B000B44043300221A60BA7B11491B
:10162C0013469B0013449B000B440C3300221A708E
:10163C00BA7B0C4913469B0013449B000B4410339C
:10164C0000221A607B7B07E0FB7B0133FB73FB7B87
:10165C00132B7FF624AF7B7B18461437BD4680BC1A
:10166C00704700BFB801002080B400AF094B1B6865
:10167C000133084A1360074B1B68002B04D1054B40
:10168C001B680133034A1360024B1B681846BD46A6
:10169C0080BC7047B401002080B485B000AF154BFE
:1016AC009B69144A43F001039361124B9B6903F04D
:1016BC000103BB60BB680F4BDB690E4A43F08053E0
:1016CC00D3610C4BDB6903F080537B607B680A4B66
:1016DC005B68FB60FB6823F0E063FB60FB6843F036
:1016EC008063FB60044AFB68536000BF1437BD463F
:1016FC0080BC7047001002400000014080B584B0EF
:10170C0000AF78607B681B68B3F1804F13D10C4B32
:10171C00DB690B4A43F00103D361094BDB6903F02E
:10172C000103FB60FB68002200211C2000F0A1F9E2
:10173C001C2000F0BAF900BF1037BD4680BD00BFB9
:10174C000010024080B400AFFEE780B400AFFEE7AB
:10175C0080B400AFFEE780B400AFFEE780B400AF0A
:10176C00FEE780B400AF00BFBD4680BC704780B4BC
:10177C0000AF00BFBD4680BC704780B400AF00BF57
:10178C00BD4680BC704780B500AF00F07FF800BF4D
:10179C0080BD000080B500AF024800F0DBFF00BF49
:1017AC0080BD00BF4803002080B400AF00BFBD4621
:1017BC0080BC7047FFF7F8FF0B480C490C4A00231C
:1017CC0002E0D458C4500433C4188C42F9D3094AEB
:1017DC00094C002301E013600432A242FBD301F058
:1017EC00F9FAFFF7EFFA70470000002044010020DF
:1017FC007C2E00084401002094030020FEE700002A
:10180C0080B500AF084B1B68074A43F01003136008
:10181C00032000F023F90F2000F008F8FFF73CFF3D
:10182C000023184680BD00BF0020024080B582B066
:10183C0000AF7860124B1A68124B1B7819464FF4A4
:10184C007A73B3FBF1F3B2FBF3F3184600F03BF9F8
:10185C000346002B01D001230EE07B680F2B0AD826
:10186C00002279684FF0FF3000F003F9064A7B68DC
:10187C001360002300E0012318460837BD4680BDE5
:10188C0038010020400100203C01002080B400AF52
:10189C00054B1B781A46054B1B681344034A13600F
:1018AC0000BFBD4680BC7047400100209003002063
:1018BC0080B400AF024B1B681846BD4680BC704715
:1018CC009003002080B485B000AF78607B6803F093
:1018DC000703FB600C4BDB68BB60BA684FF6FF0379
:1018EC001340BB60FB681A02BB68134343F0BF6331
:1018FC0043F40033BB60044ABB68D36000BF1437A9
:10190C00BD4680BC704700BF00ED00E080B400AF66
:10191C00044BDB681B0A03F007031846BD4680BC6A
:10192C00704700BF00ED00E080B483B000AF034609
:10193C00FB7197F90730002B0BDBFB7903F01F02CF
:10194C00064997F907305B09012000FA02F241F8C9
:10195C00232000BF0C37BD4680BC704700E100E07F
:10196C0080B483B000AF03463960FB7197F9073040
:10197C00002B0ADB3B68DAB20C4997F907301201ED
:10198C00D2B20B4483F800230AE03B68DAB2084970
:10199C00FB7903F00F03043B1201D2B20B441A760D
:1019AC0000BF0C37BD4680BC704700BF00E100E0B3
:1019BC0000ED00E080B489B000AFF860B9607A60E7
:1019CC00FB6803F00703FB61FB69C3F10703042BFE
:1019DC0028BF0423BB61FB690433062B02D9FB69C6
:1019EC00033B00E000237B614FF0FF32BB6902FA3E
:1019FC0003F3DA43BB681A407B699A404FF0FF311E
:101A0C007B6901FA03F3D9437B680B4013431846F7
:101A1C002437BD4680BC704780B582B000AF78607B
:101A2C007B68013BB3F1807F01D301230FE00A4AAD
:101A3C007B68013B53600F214FF0FF30FFF790FFA5
:101A4C00054B00229A60044B07221A6000231846AB
:101A5C000837BD4680BD00BF10E000E080B582B005
:101A6C0000AF78607868FFF72DFF00BF0837BD46E0
:101A7C0080BD80B586B000AF0346B9607A60FB7359
:101A8C0000237B61FFF742FF78617A68B968786957
:101A9C00FFF790FF024697F90F3011461846FFF7F3
:101AAC005FFF00BF1837BD4680BD80B582B000AF68
:101ABC000346FB7197F907301846FFF735FF00BF57
:101ACC000837BD4680BD80B582B000AF78607868BD
:101ADC00FFF7A2FF034618460837BD4680BD00003D
:101AEC0080B48BB000AF7860396000237B62002338
:101AFC003B6248E101227B6A02FA03F3FB613B681B
:101B0C001B68FA691340BB61BA69FB699A4240F0E1
:101B1C0037813B685B68A34A93425ED0A14A9342EB
:101B2C0075D8A14A934258D09F4A93426FD89F4A86
:101B3C00934252D09D4A934269D89D4A93424CD0CD
:101B4C009B4A934263D89B4A934246D0994A93420C
:101B5C005DD8122B2AD8122B59D801A252F823F097
:101B6C00E71B0008C11B0008D31B0008151C00084C
:101B7C001B1C00081B1C00081B1C00081B1C00085D
:101B8C001B1C00081B1C00081B1C00081B1C00084D
:101B9C001B1C00081B1C00081B1C00081B1C00083D
:101BAC001B1C0008C91B0008DD1B0008824A93425D
:101BBC0013D02CE03B68DB683B6229E03B68DB68B8
:101BCC0004333B6224E03B68DB6808333B621FE074
:101BDC003B68DB680C333B621AE03B689B68002B6C
:101BEC0002D104233B6213E03B689B68012B05D1B7
:101BFC0008233B627B68FA691A6109E008233B629F
:101C0C007B68FA695A6103E000233B6200E000BF85
:101C1C00BB69FF2B01D87B6801E07B6804337B61D7
:101C2C00BB69FF2B02D87B6A9B0002E07B6A083BF6
:101C3C009B003B617B691A680F213B6901FA03F336
:101C4C00DB431A40396A3B6901FA03F31A437B6997
:101C5C001A603B685B6803F08053002B00F09080A7
:101C6C00564B9B69554A43F001039361534B9B6957
:101C7C0003F00103BB60BB68514A7B6A9B080233CB
:101C8C0052F82330FB607B6A03F003039B000F22A6
:101C9C0002FA03F3DB43FA681340FB607B68494AA2
:101CAC0093420DD07B68484A934207D07B68474AE1
:101CBC00934201D1022304E0032302E0012300E05C
:101CCC0000237A6A02F0030292009340FA681343ED
:101CDC00FB603B497B6A9B080233FA6841F823207E
:101CEC003B685B6803F48013002B06D0384B9A6872
:101CFC003749BB6913438B6006E0354B9A68BB6967
:101D0C00DB43334913408B603B685B6803F400137F
:101D1C00002B06D02E4BDA682D49BB691343CB60E0
:101D2C0006E02B4BDA68BB69DB4329491340CB60D7
:101D3C003B685B6803F40033002B06D0244B5A68D5
:101D4C002349BB6913434B6006E0214B5A68BB69BE
:101D5C00DB431F4913404B603B685B6803F48033E3
:101D6C00002B06D01A4B1A681949BB6913430B6038
:101D7C0006E0174B1A68BB69DB43154913400B602F
:101D8C007B6A01337B623B681A687B6A22FA03F335
:101D9C00002B7FF4AFAE00BF00BF2C37BD4680BC1C
:101DAC00704700BF000032100000311000002210FC
:101DBC000000211000001210000011100010024051
:101DCC000000014000080140000C014000100140DF
:101DDC000004014080B485B000AF78600B467B8076
:101DEC007B689A687B881340002B02D00123FB731D
:101DFC0001E00023FB73FB7B18461437BD4680BC07
:101E0C00704780B483B000AF78600B467B8013467C
:101E1C007B707B78002B03D07A887B681A6103E097
:101E2C007B881A047B681A6100BF0C37BD4680BCE6
:101E3C00704780B485B000AF78600B467B807B68C0
:101E4C00DB68FB607A88FB6813401A04FB68D94393
:101E5C007B880B401A437B681A6100BF1437BD4660
:101E6C0080BC704780B586B000AF78607B68002B73
:101E7C0001D101236CE27B681B6803F00103002B8A
:101E8C0000F08780924B5B6803F00C03042B0CD0A2
:101E9C008F4B5B6803F00C03082B12D18C4B5B68E7
:101EAC0003F48033B3F5803F0BD1894B1B6803F4EB
:101EBC000033002B6CD07B685B68002B68D101234E
:101ECC0046E27B685B68B3F5803F06D1804B1B68AC
:101EDC007F4A43F4803313602EE07B685B68002BF1
:101EEC000CD17B4B1B687A4A23F480331360784BFC
:101EFC001B68774A23F4802313601DE07B685B68C2
:101F0C00B3F5A02F0CD1724B1B68714A43F480239C
:101F1C0013606F4B1B686E4A43F4803313600BE005
:101F2C006B4B1B686A4A23F480331360684B1B6845
:101F3C00674A23F4802313607B685B68002B13D003
:101F4C00FFF7B6FC386108E0FFF7B2FC02463B69CC
:101F5C00D31A642B01D90323FAE15D4B1B6803F4FC
:101F6C000033002BF0D014E0FFF7A2FC386108E03E
:101F7C00FFF79EFC02463B69D31A642B01D903235D
:101F8C00E6E1534B1B6803F40033002BF0D100E067
:101F9C0000BF7B681B6803F00203002B63D04C4B23
:101FAC005B6803F00C03002B0BD0494B5B6803F010
:101FBC000C03082B1CD1464B5B6803F48033002BBD
:101FCC0016D1434B1B6803F00203002B05D07B6832
:101FDC001B69012B01D00123BAE13D4B1B6823F097
:101FEC00F8027B685B69DB00394913430B603AE00C
:101FFC007B681B69002B20D0364B01221A60FFF73F
:10200C0057FC386108E0FFF753FC02463B69D31AD2
:10201C00022B01D903239BE12D4B1B6803F0020318
:10202C00002BF0D02A4B1B6823F0F8027B685B690D
:10203C00DB00274913430B6015E0264B00221A6086
:10204C00FFF736FC386108E0FFF732FC02463B69CB
:10205C00D31A022B01D903237AE11D4B1B6803F021
:10206C000203002BF0D17B681B6803F00803002BE4
:10207C003AD07B689B69002B19D0174B01221A6050
:10208C00FFF716FC386108E0FFF712FC02463B69CB
:10209C00D31A022B01D903235AE10D4B5B6A03F0CF
:1020AC000203002BF0D0012000F09AFA1CE00A4B3E
:1020BC0000221A60FFF7FCFB38610FE0FFF7F8FB1A
:1020CC0002463B69D31A022B08D9032340E100BF17
:1020DC000010024000004242800442429E4B5B6A68
:1020EC0003F00203002BE9D17B681B6803F00403A7
:1020FC00002B00F0A6800023FB75974BDB6903F0E7
:10210C008053002B0DD1944BDB69934A43F08053E1
:10211C00D361914BDB6903F08053BB60BB68012337
:10212C00FB758E4B1B6803F48073002B18D18B4B03
:10213C001B688A4A43F480731360FFF7B9FB38615C
:10214C0008E0FFF7B5FB02463B69D31A642B01D9B3
:10215C000323FDE0814B1B6803F48073002BF0D04C
:10216C007B68DB68012B06D17B4B1B6A7A4A43F0F8
:10217C00010313622DE07B68DB68002B0CD1764BDE
:10218C001B6A754A23F001031362734B1B6A724A74
:10219C0023F0040313621CE07B68DB68052B0CD175
:1021AC006D4B1B6A6C4A43F0040313626A4B1B6A47
:1021BC00694A43F0010313620BE0674B1B6A664AE2
:1021CC0023F001031362644B1B6A634A23F004037C
:1021DC0013627B68DB68002B15D0FFF769FB386155
:1021EC000AE0FFF765FB02463B69D31A41F28832DD
:1021FC00934201D90323ABE0574B1B6A03F0020354
:10220C00002BEED014E0FFF753FB38610AE0FFF728
:10221C004FFB02463B69D31A41F28832934201D9F3
:10222C00032395E04C4B1B6A03F00203002BEED109
:10223C00FB7D012B05D1484BDB69474A23F08053CA
:10224C00D3617B68DB69002B00F08180424B5B68BB
:10225C0003F00C03082B61D07B68DB69022B46D1A1
:10226C003F4B00221A60FFF723FB386108E0FFF7B1
:10227C001FFB02463B69D31A022B01D9032367E0EB
:10228C00354B1B6803F00073002BF0D17B681B6A85
:10229C00B3F5803F08D1304B5B6823F400327B6888
:1022AC009B682D4913434B602B4B5B6823F47412D2
:1022BC007B68196A7B685B6A0B43274913434B6045
:1022CC00274B01221A60FFF7F3FA386108E0FFF799
:1022DC00EFFA02463B69D31A022B01D9032337E0EC
:1022EC001D4B1B6803F00073002BF0D02FE01C4B30
:1022FC0000221A60FFF7DCFA386108E0FFF7D8FA21
:10230C0002463B69D31A022B01D9032320E0124B5E
:10231C001B6803F00073002BF0D118E07B68DB69BD
:10232C00012B01D1012313E00B4B5B68FB60FB68B5
:10233C0003F480327B681B6A9A4206D1FB6803F473
:10234C0070127B685B6A9A4201D0012300E0002383
:10235C0018461837BD4680BD001002400070004082
:10236C006000424280B584B000AF786039607B6811
:10237C00002B01D10123D0E06A4B1B6803F007034B
:10238C003A689A4210D9674B1B6823F007026549DB
:10239C003B6813430B60634B1B6803F007033A68FD
:1023AC009A4201D00123B8E07B681B6803F002035A
:1023BC00002B20D07B681B6803F00403002B05D096
:1023CC00594B5B68584A43F4E06353607B681B6865
:1023DC0003F00803002B05D0534B5B68524A43F4BF
:1023EC0060535360504B5B6823F0F0027B689B6832
:1023FC004D4913434B607B681B6803F00103002BB2
:10240C0040D07B685B68012B07D1474B1B6803F4FA
:10241C000033002B15D101237FE07B685B68022B16
:10242C0007D1414B1B6803F00073002B09D101232A
:10243C0073E03D4B1B6803F00203002B01D1012319
:10244C006BE0394B5B6823F003027B685B683649B1
:10245C0013434B60FFF72CFAF8600AE0FFF728FAF9
:10246C000246FB68D31A41F28832934201D9032306
:10247C0053E02D4B5B6803F00C027B685B689B00A0
:10248C009A42EBD1274B1B6803F007033A689A4238
:10249C0010D2244B1B6823F0070222493B681343DC
:1024AC000B60204B1B6803F007033A689A4201D07B
:1024BC00012332E07B681B6803F00403002B08D077
:1024CC00194B5B6823F4E0627B68DB6816491343A5
:1024DC004B607B681B6803F00803002B09D0124B80
:1024EC005B6823F460527B681B69DB000E49134365
:1024FC004B6000F021F802460B4B5B681B0903F0A4
:10250C000F030A49CB5C22FA03F3094A1360094B07
:10251C001B681846FFF78AF9002318461037BD468A
:10252C0080BD00BF0020024000100240502E000869
:10253C00380100203C01002080B487B000AF00239C
:10254C00FB600023BB6000237B6100237B600023C6
:10255C003B611E4B5B68FB60FB6803F00C03042BB8
:10256C0002D0082B03D027E0194B3B6127E0FB6816
:10257C009B0C03F00F03174AD35C7B60FB6803F4DE
:10258C008033002B10D0114B5B685B0C03F0010304
:10259C00114AD35CBB607B680D4A02FB03F2BB683B
:1025AC00B2FBF3F37B6104E07B680C4A02FB03F3A0
:1025BC007B617B693B6102E0054B3B6100BF3B6982
:1025CC0018461C37BD4680BC704700BF0010024047
:1025DC0000127A00602E0008702E000800093D00E1
:1025EC0080B485B000AF78600A4B1B680A4AA2FB26
:1025FC0003235B0A7A6802FB03F3FB6000BFFB68F2
:10260C005A1EFA60002BF9D100BF00BF1437BD462B
:10261C0080BC704738010020D34D621080B582B069
:10262C0000AF78607B68002B01D1012341E07B680F
:10263C0093F83D30DBB2002B06D17B68002283F887
:10264C003C207868FFF75AF87B68022283F83D201B
:10265C007B681A687B6804331946104600F056FAFA
:10266C007B68012283F846207B68012283F83E2098
:10267C007B68012283F83F207B68012283F840208D
:10268C007B68012283F841207B68012283F8422079
:10269C007B68012283F843207B68012283F8442065
:1026AC007B68012283F845207B68012283F83D205A
:1026BC00002318460837BD4680BD000080B485B0A5
:1026CC0000AF78607B6893F83D30DBB2012B01D012
:1026DC00012335E07B68022283F83D207B681B6870
:1026EC00DA687B681B6842F00102DA607B681B6861
:1026FC00164A934209D07B681B68B3F1804F04D013
:10270C007B681B68124A934211D17B681B689B68DB
:10271C0003F00703FB60FB68062B10D07B681B687B
:10272C001A687B681B6842F001021A6007E07B683C
:10273C001B681A687B681B6842F001021A60002350
:10274C0018461437BD4680BC704700BF002C0140B2
:10275C000004004080B584B000AF78607B681B68D3
:10276C00DB68FB607B681B681B69BB60BB6803F0A4
:10277C000203002B20D0FB6803F00203002B1BD0BC
:10278C007B681B686FF002021A617B6801221A7762
:10279C007B681B689B6903F00303002B03D07868EC
:1027AC0000F098F905E0786800F08BF9786800F093
:1027BC009AF97B6800221A77BB6803F00403002B9C
:1027CC0020D0FB6803F00403002B1BD07B681B6834
:1027DC006FF004021A617B6802221A777B681B680F
:1027EC009B6903F44073002B03D0786800F072F9F6
:1027FC0005E0786800F065F9786800F074F97B689A
:10280C0000221A77BB6803F00803002B20D0FB686A
:10281C0003F00803002B1BD07B681B686FF00802C9
:10282C001A617B6804221A777B681B68DB6903F0EA
:10283C000303002B03D0786800F04CF905E07868AE
:10284C0000F03FF9786800F04EF97B6800221A77A7
:10285C00BB6803F01003002B20D0FB6803F01003BF
:10286C00002B1BD07B681B686FF010021A617B6811
:10287C0008221A777B681B68DB6903F44073002B12
:10288C0003D0786800F026F905E0786800F019F9B3
:10289C00786800F028F97B6800221A77BB6803F08F
:1028AC000103002B0CD0FB6803F00103002B07D0B5
:1028BC007B681B686FF001021A617868FEF7ACFB4D
:1028CC00BB6803F08003002B0CD0FB6803F0800383
:1028DC00002B07D07B681B686FF080021A61786848
:1028EC0000F06FFABB6803F04003002B0CD0FB68C0
:1028FC0003F04003002B07D07B681B686FF040028D
:10290C001A61786800F0F8F8BB6803F02003002B1C
:10291C000CD0FB6803F02003002B07D07B681B68EE
:10292C006FF020021A61786800F042FA00BF10378D
:10293C00BD4680BD80B584B000AF7860396000239F
:10294C00FB737B6893F83C30012B01D10223B4E07C
:10295C007B68012283F83C207B68022283F83D20AF
:10296C007B681B689B68BB60BB6823F07703BB600C
:10297C00BB6823F47F43BB607B681B68BA689A60B2
:10298C003B681B68B3F5005F3ED0B3F5005F00F207
:10299C008780B3F5805F00F08680B3F5805F7FD8C9
:1029AC00702B1AD0702B7BD8602B50D0602B77D823
:1029BC00502B3CD0502B73D8402B58D0402B6FD879
:1029CC00302B64D0302B6BD8202B60D0202B67D8C9
:1029DC00002B5CD0102B5AD062E07B6818683B68E7
:1029EC0099683B685A683B68DB6800F06AF97B6859
:1029FC001B689B68BB60BB6843F07703BB607B685C
:102A0C001B68BA689A604FE07B6818683B689968E5
:102A1C003B685A683B68DB6800F053F97B681B68BD
:102A2C009A687B681B6842F480429A603CE07B6841
:102A3C0018683B6859683B68DB681A4600F0CAF8AE
:102A4C007B681B685021184600F021F92CE07B684C
:102A5C0018683B6859683B68DB681A4600F0E8F870
:102A6C007B681B686021184600F011F91CE07B683C
:102A7C0018683B6859683B68DB681A4600F0AAF88E
:102A8C007B681B684021184600F001F90CE07B685C
:102A9C001A683B681B681946104600F0F8F803E00A
:102AAC000123FB7300E000BF7B68012283F83D200B
:102ABC007B68002283F83C20FB7B18461037BD4610
:102ACC0080BD80B483B000AF786000BF0C37BD46CA
:102ADC0080BC704780B483B000AF786000BF0C3707
:102AEC00BD4680BC704780B483B000AF786000BF37
:102AFC000C37BD4680BC704780B483B000AF7860A3
:102B0C0000BF0C37BD4680BC7047000080B485B058
:102B1C0000AF786039607B681B68FB607B682B4A70
:102B2C00934207D07B68B3F1804F03D07B68284A6F
:102B3C00934208D1FB6823F07003FB603B685B6831
:102B4C00FA681343FB607B68204A934207D07B688A
:102B5C00B3F1804F03D07B681D4A934208D1FB68C8
:102B6C0023F44073FB603B68DB68FA681343FB603B
:102B7C00FB6823F080023B685B691343FB607B6856
:102B8C00FA681A603B689A687B68DA623B681A6874
:102B9C007B689A627B680D4A934203D13B681A6941
:102BAC007B681A637B6801225A617B681B6903F09E
:102BBC000103002B05D07B681B6923F001027B68A5
:102BCC001A6100BF1437BD4680BC7047002C014011
:102BDC000004004080B487B000AFF860B9607A6040
:102BEC00FB681B6A7B61FB681B6A23F00102FB68B4
:102BFC001A62FB689B693B613B6923F0F0033B6104
:102C0C007B681B013A6913433B617B6923F00A0320
:102C1C007B617A69BB6813437B61FB683A699A6193
:102C2C00FB687A691A6200BF1C37BD4680BC7047CE
:102C3C0080B487B000AFF860B9607A60FB681B6A3B
:102C4C007B61FB681B6A23F01002FB681A62FB684D
:102C5C009B693B613B6923F470433B617B681B03BD
:102C6C003A6913433B617B6923F0A0037B61BB682A
:102C7C001B017A6913437B61FB683A699A61FB68B3
:102C8C007A691A6200BF1C37BD4680BC704780B49D
:102C9C0085B000AF786039607B689B68FB60FB682F
:102CAC0023F07003FB603A68FB68134343F007039F
:102CBC00FB607B68FA689A6000BF1437BD4680BC25
:102CCC00704780B487B000AFF860B9607A603B6041
:102CDC00FB689B687B617B6923F47F437B613B686A
:102CEC001A027B681A43BB6813437A6913437B61EE
:102CFC00FB687A699A6000BF1C37BD4680BC704780
:102D0C0080B485B000AF786039607B6893F83C3054
:102D1C00012B01D1022341E07B68012283F83C2086
:102D2C007B68022283F83D207B681B685B68FB6034
:102D3C007B681B689B68BB60FB6823F07003FB60BF
:102D4C003B681B68FA681343FB607B681B68FA6876
:102D5C005A607B681B68144A934209D07B681B68D5
:102D6C00B3F1804F04D07B681B68104A93420CD19E
:102D7C00BB6823F08003BB603B685B68BA68134395
:102D8C00BB607B681B68BA689A607B68012283F819
:102D9C003D207B68002283F83C2000231846143722
:102DAC00BD4680BC704700BF002C014000040040B1
:102DBC0080B483B000AF786000BF0C37BD4680BCD8
:102DCC00704780B483B000AF786000BF0C37BD464D
:102DDC0080BC704770B500260C4D0D4C641BA410C4
:102DEC00A64209D100F022F800260A4D0A4C641BB9
:102DFC00A410A64205D170BD55F8043B9847013686
:102E0C00EEE755F8043B98470136F2E7742E0008BC
:102E1C00742E0008742E0008782E00080346024415
:102E2C00934200D1704703F8011BF9E7F8B500BFD6
:102E3C00F8BC08BC9E467047F8B500BFF8BC08BC8F
:042E4C009E467047E7
:102E5000000000000000000001020304060708094A
:102E600002030405060708090A0B0C0D0E0F1010CB
:042E7000010200005B
:042E74003101000820
:042E78000D01000840
:102E7C000000000000000000000000000000000046
:102E8C000000000000000000010000000100000034
:102E9C000000000000000000010000000100000024
:102EAC000100000001000000000000000000000014
:102EBC000100000000000000000000000100000004
:102ECC0000000000000000000000000000000000F6
:102EDC0000000000010000000100000000000000E4
:102EEC0001000000000000000000000001000000D4
:102EFC0001000000000000000000000000000000C5
:102F0C0001000000000000000000000001000000B3
:102F1C0000000000000000000000000001000000A4
:102F2C000000000000000000000000000000000095
:102F3C000000000000000000000000000000000085
:102F4C000100000001000000010000000100000071
:102F5C000000000000000000000000000000000065
:102F6C000000000000000000000000000000000055
:102F7C000000000000000000000000000100000044
:102F8C00000000000000000005000000020000002E
:102F9C0003000000FFFFFFFF1E0000000500000003
:102FAC00020000000300000000127A001000000074
:042FBC000100000010
:04000005080017C117
:00000001FF
